:100000000C945D000C9485000C9485000C94850084
:100010000C9485000C9485000C9485000C9485004C
:100020000C9485000C9485000C9485000C9485003C
:100030000C9485000C9485000C9485000C9485002C
:100040000C9423040C9485000C9493040C946D047C
:100050000C9485000C9485000C9485000C9485000C
:100060000C94C5040C9485000000000800020100F7
:100070000003040700000000000000000000000072
:10008000250028002B0000000000240027002A0083
:10009000040404040404040402020202020203032E
:1000A0000303030301020408102040800102040836
:1000B0001020010204081020E00511241FBECFEF1C
:1000C000D8E0DEBFCDBF11E0A0E0B1E0E8E9FDE09F
:1000D00002C005900D92AC32B107D9F722E0ACE234
:1000E000B1E001C01D92AB35B207E1F710E0CDE5FC
:1000F000D0E004C02197FE010E94C406CC35D10790
:10010000C9F70E942B060C94CA060C94000090E0DC
:10011000FC01EC55FF4F249180579F4FFC018491C7
:10012000882399F090E0880F991FFC01EA57FF4F50
:10013000A591B491FC01E458FF4F859194918FB73C
:10014000F894EC91E22BEC938FBF089590E0FC01C2
:10015000E859FF4F2491FC01EC55FF4F3491FC010D
:10016000E057FF4FE491EE23C9F0222339F023300A
:1001700001F1A8F4213019F1223029F1F0E0EE0F5D
:10018000FF1FE458FF4FA591B4918FB7F894EC91FD
:10019000611126C030953E233C938FBF08952730D0
:1001A000A9F02830C9F0243049F7809180008F7D74
:1001B00003C0809180008F7780938000DFCF84B56B
:1001C0008F7784BDDBCF84B58F7DFBCF8091B0006E
:1001D0008F778093B000D2CF8091B0008F7DF9CF20
:1001E0003E2BDACFAF92BF92CF92DF92EF92FF9287
:1001F0000F931F93CF93DF936C017B018B01040F4F
:10020000151FEB015E01AE18BF08C017D10759F0EA
:100210006991D601ED91FC910190F081E02DC6012C
:100220000995892B79F7C501DF91CF911F910F9126
:10023000FF90EF90DF90CF90BF90AF900895FC01BA
:10024000538D448D252F30E0842F90E0821B930B3B
:10025000541710F0CF96089501970895FC01918DE1
:10026000828D981761F0A28DAE0FBF2FB11D5D96E4
:100270008C91928D9F5F9F73928F90E008958FEF86
:100280009FEF0895FC01918D828D981731F0828D3A
:10029000E80FF11D858D90E008958FEF9FEF089591
:1002A000FC01918D228D892F90E0805C9F4F821BF5
:1002B00091098F739927089586EA91E00E94500171
:1002C00021E0892B09F420E0822F089580E090E05E
:1002D000892B29F00E945C0181110C940000089583
:1002E000FC01A48DA80FB92FB11DA35ABF4F2C91AB
:1002F000848D90E001968F739927848FA689B789A2
:100300002C93A089B1898C91837080648C93938D98
:10031000848D981306C00288F389E02D80818F7D3B
:1003200080830895EF92FF920F931F93CF93DF93F3
:10033000EC0181E0888F9B8D8C8D98131AC0E88921
:10034000F989808185FF15C09FB7F894EE89FF89F0
:100350006083E889F98980818370806480839FBF8E
:1003600081E090E0DF91CF911F910F91FF90EF908E
:100370000895F62E0B8D10E00F5F1F4F0F7311279E
:10038000E02E8C8D8E110CC00FB607FCFACFE889D9
:10039000F989808185FFF5CFCE010E947001F1CFF0
:1003A000EB8DEC0FFD2FF11DE35AFF4FF0829FB74D
:1003B000F8940B8FEA89FB8980818062CFCFCF933D
:1003C000DF93EC01888D8823B9F0AA89BB89E8897D
:1003D000F9898C9185FD03C0808186FD0DC00FB623
:1003E00007FCF7CF8C9185FFF2CF808185FFEDCFA1
:1003F000CE010E947001E9CFDF91CF910895209145
:100400005301260F3327331F21323105ECF420919D
:100410007701FC0190E080E0243069F082E00895EB
:10042000A09153012191AC014D5C5E4FA40FB52FFB
:10043000B11D2C930196861798F380915301680F94
:100440006093530180E0089581E0089508958FEF4F
:100450009FEF08958FEF9FEF089580912C0190E01A
:100460009195819591090895CF93DF93CB01EA018E
:10047000642F0E94FF01CE01DF91CF910895CF93A9
:10048000DF931F92CDB7DEB7698361E0CE0101969D
:100490000E94FF0181E090E00F90DF91CF910895DD
:1004A000089590E080E00895FB0101900020E9F7B5
:1004B0003197AF01461B570BDC01ED91FC91028097
:1004C000F381E02D09941F93CF93DF9385ED809303
:1004D000BC0080912F0190913001A0913101B09129
:1004E00032010796A11DB11D23E0B695A7959795FA
:1004F00087952A95D1F72091BC0024FD03C0109266
:10050000770152C040912F0150913001609131012B
:1005100070913201452B462B472B69F30097A105BB
:10052000B10541F02AE22A95F1F700C00197A1092F
:10053000B109E1CF80912E01C1E0C0932D01882344
:1005400099F1D091B8001091BA008091BC008A7BDB
:100550008093BC0060E082E10E94A60060E083E13D
:100560000E94A60010927701C09379011092780141
:1005700061E082E10E94A60061E083E10E94A600A2
:100580008091B9008E7F8093B9008091B9008D7FF2
:100590008093B90088E48093B80085E48093BC0020
:1005A0001093BA00D093B800DF91CF911F910895B6
:1005B000CF93DF93EC0160E08E810E94A60061E0A2
:1005C0008E810E94A60060E08E810E94A6008BE8CA
:1005D00091E00197F1F7DF91CF910895CF92DF92EB
:1005E000EF92FF920F931F93CF93DF936C017C01E7
:1005F00087E0E80EF11CD0E0C0E0062F10E0B80163
:100600000C2E02C0759567950A94E2F76170F701A8
:1006100081917F010E94A6002196C430D10579F70F
:10062000C601DF91CF911F910F91FF90EF90DF9066
:10063000CF900C94D802CF92DF92EF92FF920F935B
:100640001F93CF93DF93EC01F62E642F8C810E94D1
:10065000A6008D818F3F19F060E00E94A6000F2D4B
:1006600010E08F8584FF25C06E0187E0C80ED11C85
:10067000F12CE12CB8010E2C02C0759567950A94F7
:10068000E2F76170F60181916F010E94A600FFEF11
:10069000EF1AFF0A88E0E816F10461F7CE01DF9156
:1006A000CF911F910F91FF90EF90DF90CF900C941E
:1006B000D802B80184E0759567958A95E1F7CE0177
:1006C0000E94EE026F2DCE01DF91CF911F910F910D
:1006D000FF90EF90DF90CF900C94EE02CF93DF93DA
:1006E000609356021092570290E4909358028093C0
:1006F0005902805C80935A02809147020E948700D1
:10070000809148028F3F11F00E948700809149023A
:100710000E948700C3E4D2E09E01235432408091BE
:10072000520284FD0AC084E090E021962817390720
:100730003CF48E810E948700EFCF88E090E0F5CFF7
:100740008BE39DE00197F1F760E0809147020E9402
:10075000A60060E0809149020E94A60080914802B4
:100760008F3F19F060E00E94A6006091520264FD84
:1007700045C063E083E492E00E94EE02CBE4D6E45D
:10078000CE010197F1F763E083E492E00E94EE026C
:100790002197F1F763E083E492E00E94EE0283E5A3
:1007A00092E00197F1F762E083E492E00E94EE02AA
:1007B00060915202606240E083E492E00E941B0379
:1007C00084E08093530240E06CE083E492E00E9476
:1007D0001B0340E061E083E492E00E941B038BE393
:1007E0009FE10197F1F782E08093540240E066E0D8
:1007F00083E492E0DF91CF910C941B03606240E0B0
:1008000083E492E00E941B038BE496E40197F1F7E6
:1008100060915202606240E083E492E00E941B0318
:1008200083E592E00197F1F760915202606240E047
:1008300083E492E00E941B03BBCF41E00E941B03B4
:1008400081E090E008951F920F920FB60F9211244D
:100850002F933F938F939F93AF93BF938091A20168
:100860009091A301A091A401B091A5013091A101A3
:1008700023E0230F2D3758F50196A11DB11D2093BC
:10088000A1018093A2019093A301A093A401B0932E
:10089000A50180919D0190919E01A0919F01B09131
:1008A000A0010196A11DB11D80939D0190939E0111
:1008B000A0939F01B093A001BF91AF919F918F91A1
:1008C0003F912F910F900FBE0F901F90189526E823
:1008D000230F0296A11DB11DD2CF1F920F920FB60A
:1008E0000F9211242F933F934F935F936F937F93B6
:1008F0008F939F93AF93BF93EF93FF9386EA91E01B
:100900000E947001FF91EF91BF91AF919F918F91E4
:100910007F916F915F914F913F912F910F900FBEFB
:100920000F901F9018951F920F920FB60F921124DF
:100930002F938F939F93EF93FF93E091B601F091E4
:10094000B7018081E091BC01F091BD0182FD1BC027
:1009500090818091BF018F5F8F732091C0018217BA
:1009600041F0E091BF01F0E0EA55FE4F958F809392
:10097000BF01FF91EF919F918F912F910F900FBE2B
:100980000F901F9018958081F4CF1F920F920FB691
:100990000F9211242F933F934F935F936F937F9305
:1009A0008F939F93AF93BF93EF93FF938091B90081
:1009B000887F803609F44AC0F0F5883209F4A5C072
:1009C00018F5803109F499C0B8F4882309F4F5C00A
:1009D000883009F492C0FF91EF91BF91AF919F9140
:1009E0008F917F916F915F914F913F912F910F90D8
:1009F0000FBE0F901F901895883109F486C0803281
:100A000051F78093760114C0803409F49BC040F400
:100A10008033B9F38833F9F68093760185ECAEC064
:100A2000803509F483C0883509F494C0883499F678
:100A30000E946302D0CF883909F48AC038F588371C
:100A400029F050F4883611F0803729F683E080933E
:100A500077011092750155C0883809F479C0803942
:100A600019F0803809F0B7CF80917501803208F015
:100A70006FC0E091750181E08E0F809375018091C8
:100A8000BB00F0E0EB5AFE4F80833BC0803B39F067
:100A9000D0F4803A09F477C0883A09F09CCF84E01A
:100AA000809377011092540110925301F0E0E0E03E
:100AB00009958091530181110FC081E0809353010A
:100AC0001092330109C0803C09F4A8CF883C09F496
:100AD000A5CF883B09F07FCFE091540181E08E0FD4
:100AE00080935401F0E0ED5CFE4F80818093BB0069
:100AF000909154018091530129C080919C01809371
:100B0000BB0085EC8093BC0066CF90919B018091E7
:100B10009A01981758F5E0919B0181E08E0F809320
:100B20009B01F0E0E658FE4F8081E9CFE0919B0108
:100B300081E08E0F80939B018091BB00F0E0E6582E
:100B4000FE4F808390919B0180919A019817C8F283
:100B500085E8D8CFE0919B0181E08E0F80939B01C7
:100B60008091BB00F0E0E658FE4F808380917901D0
:100B700081115ECF81E08093780184EA8093BC008C
:100B80001092770128CF85EC8093BC0010927701FA
:100B900080917501803230F4E0917501F0E0EB5AFC
:100BA000FE4F10826091750170E085E591E0F0E004
:100BB000E0E00995109275010ECF1092760138CFC2
:100BC000E6EAF1E01382128288EE93E0A0E0B0E062
:100BD00084839583A683B78384E091E091838083A7
:100BE00085EC90E09587848784EC90E097878687F2
:100BF00080EC90E0918B808B81EC90E0938B828BEA
:100C000082EC90E0958B848B86EC90E0978B868BC2
:100C1000118E128E138E148EE3E4F2E01382128290
:100C200086E191E0918380838CE084838FEF8583DC
:100C30008BE0868385E0878384E0808783E08187FB
:100C400082E082871386148615861686178661E0F1
:100C500080E10C946E03789484B5826084BD84B581
:100C6000816084BD85B5826085BD85B5816085BDA7
:100C700080916E00816080936E001092810080915F
:100C800081008260809381008091810081608093E7
:100C90008100809180008160809380008091B1000C
:100CA00084608093B1008091B00081608093B00037
:100CB00080917A00846080937A0080917A008260CB
:100CC00080937A0080917A00816080937A0080918D
:100CD0007A00806880937A001092C10060E080E022
:100CE0000E946E03E091B601F091B70182E080832B
:100CF000E091B201F091B3011082E091B401F09162
:100D0000B5018FEC80831092BE01E091BA01F091A1
:100D1000BB0186E08083E091B801F091B901808148
:100D200080618083E091B801F091B9018081886091
:100D30008083E091B801F091B9018081806880835F
:100D4000E091B801F091B90180818F7D80836EE1DF
:100D500071E083E492E00E945402C0E0D0E06EE1D2
:100D600071E086EA91E00E94540269E271E086EA4D
:100D700091E00E945402209791F30E945C01882325
:100D800071F30E940000EBCFEE0FFF1F0590F4916E
:080D9000E02D0994F894FFCF57
:100D9800000000009201F2001F01DF0150012E0146
:100DA8004201000000001D04F20051025002486F89
:0C0DB8006C61204D756E646F000D0A0028
:00000001FF
