:100000000C9447010C9478010C9478010C947801BD
:100010000C9478010C9478010C9478010C9478017C
:100020000C9478010C9478010C9478010C9478016C
:100030000C9478010C9478010C9478010C9478015C
:100040000C9478010C9478010C9478010C9478014C
:100050000C9478010C9478010C9478010C94920320
:100060000C9478010C9478010C9478010C9478012C
:100070000C9478010C9478010C9478010C9478011C
:100080000C9478010C9478010C9478010C9478010C
:100090000C9478010C9478010C9478010C947801FC
:1000A0000C9478010C9478010C9478010C947801EC
:1000B0000C9478010C9478010C9478010C947801DC
:1000C0000C9478010C9478010C9478010C947801CC
:1000D0000C9478010C9478010C9406040C94DC03C5
:1000E0000C9478010C94C7010C94E2050C94FE0169
:1000F0000C947E020C948D020C947A060C94E6010A
:100100000C94C3010C9434030C94CE010C94AF02F4
:100110000C94DE010C94AF010C94E7020C94AA013C
:100120000C94FA010C9451020C9418060C94F401EE
:100130000C9433060C94EC010C944E060C94F001D4
:100140000C94D8010C94D4010C94CB010C94A10212
:100150000C94AC050C94BF010C944F050C94FD0558
:100160000C9491050C94C7050C94E2010000220048
:10017000250028002B002E00310034000201000071
:10018000050108010B0100002100240027002A00BE
:100190002D003000330001010000040107010A01B5
:1001A000000020002300260029002C002F00320030
:1001B0000001000003010601090105050505070509
:1001C00008080808020202020A0A080804040404D3
:1001D00001010101010101010303030303030303FF
:1001E000040707070C0C0C0C0C0C0C0C020202028E
:1001F00006060606060606060B0B0B0B0B0B0B0B77
:100200000102102020080810204010204080020128
:10021000020108040201010204081020408080400D
:10022000201008040201800402018040201008040C
:1002300002010804020101020408102040800102AA
:1002400004081020408000000A0B02090C0D0E0863
:10025000070304010000000000000000000000008F
:10026000000000000000000000000000000000008E
:10027000000012111000000000000000000000004B
:100280000000000000000000000000007A061124B9
:100290001FBECFEFD1E2DEBFCDBF00E00CBF22E03A
:1002A000A6E1B2E001C01D92AF3BB207E1F712E058
:1002B000A0E0B2E0E8EAF0E100E00BBF02C0079086
:1002C0000D92A631B107D9F711E0C7E4D1E000E003
:1002D00006C021970109802FFE010E944A08C634FA
:1002E000D10780E00807A9F70E943C040C9452084B
:1002F0000C940000282F30E0F901EA5BFD4F949147
:10030000F901E050FE4F449126543E4FF9012491EB
:10031000222309F477C0992311F191509231F8F416
:10032000E92FF0E08827E856FE4F8F4F0C944A08DB
:10033000C701CB01AA01BF01C301AF01CE01D401A6
:10034000D801DE01E201E601EC01F001AF01F401A8
:10035000FA01FE01809180008F7780938000E22F68
:10036000F0E0EE0FFF1FE056FE4FA591B491EC9127
:10037000E42381E090E009F047C080E00895809197
:1003800080008F7DEACF80918000877FE6CF84B5A3
:100390008F7784BDE4CF84B58F7DFBCF8091B00093
:1003A0008F778093B000DBCF8091B0008F7DF9CF45
:1003B000809190008F7780939000D1CF80919000B2
:1003C0008F7DF9CF80919000877FF5CF8091A0003D
:1003D0008F778093A000C3CF8091A0008F7DF9CF4D
:1003E0008091A000877FF5CF809120018F77809347
:1003F0002001B5CF809120018F7DF9CF8091200120
:10040000877FF5CF80E090E00895CF93DF9390E071
:10041000FC01E050FE4F249186549E4FFC018491D4
:100420008823D1F090E0880F991FFC01EA57FE4F16
:10043000A591B491FC01E459FE4FC591D49161118D
:100440000EC09FB7F8948C91E22FE0958E238C9389
:100450002881E223E8839FBFDF91CF9108958FB772
:10046000F894EC91E22BEC938FBFF6CF865320915A
:100470007B00982F987F277F922B90937B0087702B
:10048000806480937C0080917A00806480937A00FD
:1004900080917A0086FDFCCF809178009091790060
:1004A0000895AF92BF92CF92DF92EF92FF920F9397
:1004B0001F93CF93DF936C017B018B01040F151FFA
:1004C000EB015E01AE18BF08C017D10759F0699162
:1004D000D601ED91FC910190F081E02DC6011995B6
:1004E000892B79F7C501DF91CF911F910F91FF9073
:1004F000EF90DF90CF90BF90AF900895FC01538DA7
:10050000448D252F30E0842F90E0821B930B5417ED
:1005100010F0CF96089501970895FC01918D828D7A
:10052000981761F0A28DAE0FBF2FB11D5D968C9113
:10053000928D9F5F9F73928F90E008958FEF9FEF52
:100540000895FC01918D828D981731F0828DE80F0E
:10055000F11D858D90E008958FEF9FEF0895FC01C8
:10056000918D228D892F90E0805C9F4F821B910995
:100570008F739927089582E292E00E94AF0221E0F2
:10058000892B09F420E0822F0895FC01A48DA80F87
:10059000B92FB11DA35ABF4F2C91848D90E00196C5
:1005A0008F739927848FA689B7892C93A089B189E5
:1005B0008C91837080648C93938D848D981306C086
:1005C0000288F389E02D80818F7D80830895EF92EA
:1005D000FF920F931F93CF93DF93EC0181E0888FFD
:1005E0009B8D8C8D98131AC0E889F989808185FFCD
:1005F00015C09FB7F894EE89FF896083E889F9896F
:1006000080818370806480839FBF81E090E0DF9170
:10061000CF911F910F91FF90EF900895F62E0B8DC3
:1006200010E00F5F1F4F0F731127E02E8C8D8E117E
:100630000CC00FB607FCFACFE889F989808185FFE5
:10064000F5CFCE010E94C502F1CFEB8DEC0FFD2F4F
:10065000F11DE35AFF4FF0829FB7F8940B8FEA89A0
:10066000FB8980818062CFCFCF93DF93EC01888DAF
:100670008823B9F0AA89BB89E889F9898C9185FD1D
:1006800003C0808186FD0DC00FB607FCF7CF8C91AB
:1006900085FFF2CF808185FFEDCFCE010E94C5029C
:1006A000E9CFDF91CF91089580E090E0892B49F068
:1006B00080E090E0892B29F00E94000081110E94C7
:1006C000000080E090E0892B49F080E090E0892BE9
:1006D00029F00E94000081110E94000080E090E05B
:1006E000892B49F080E090E0892B29F00E940000DE
:1006F00081110E94000080E090E0892B29F00E9487
:10070000BB0281110C9400000895FC0101900020AF
:10071000E9F73197AF01481B590BBC0182E292E027
:100720000C9451021F920F920FB60F9211242F9327
:100730003F938F939F93AF93BF9380911E029091AD
:100740001F02A0912002B091210230911D0223E0EE
:10075000230F2D3758F50196A11DB11D20931D02C1
:1007600080931E0290931F02A0932002B093210257
:100770008091190290911A02A0911B02B0911C0263
:100780000196A11DB11D8093190290931A02A093A6
:100790001B02B0931C02BF91AF919F918F913F912B
:1007A0002F910F900FBE0F901F90189526E8230FE2
:1007B0000296A11DB11DD2CF1F920F920FB60F92BC
:1007C00011240BB60F922F933F934F935F936F9328
:1007D0007F938F939F93AF93BF93EF93FF9382E2A7
:1007E00092E00E94C502FF91EF91BF91AF919F915E
:1007F0008F917F916F915F914F913F912F910F90CA
:100800000BBE0F900FBE0F901F9018951F920F9266
:100810000FB60F9211240BB60F922F938F939F93C5
:10082000EF93FF93E0913202F09133028081E091E7
:100830003802F091390282FD1DC0908180913B0207
:100840008F5F8F7320913C02821741F0E0913B0251
:10085000F0E0EE5DFD4F958F80933B02FF91EF91AD
:100860009F918F912F910F900BBE0F900FBE0F9005
:100870001F9018958081F2CF789484B5826084BDF2
:1008800084B5816084BD85B5826085BD85B5816094
:1008900085BD80916E00816080936E001092810012
:1008A00080918100826080938100809181008160CD
:1008B000809381008091800081608093800080918E
:1008C000B10084608093B1008091B000816080931A
:1008D000B00080919100826080939100809191009E
:1008E000816080939100809190008160809390005E
:1008F0008091A10082608093A1008091A10081601D
:100900008093A1008091A00081608093A0008091DD
:100910002101826080932101809121018160809377
:1009200021018091200181608093200180917A00D3
:10093000846080937A0080917A00826080937A004C
:1009400080917A00816080937A0080917A0080683B
:1009500080937A001092C100E0913202F09133024C
:1009600082E08083E0912E02F0912F021082E091CC
:100970003002F09131028FEC808310923A02E091C4
:100980003602F091370286E08083E0913402F091E4
:100990003502808180618083E0913402F0913502DC
:1009A000808188608083E0913402F09135028081FB
:1009B00080688083E0913402F091350280818F7DE0
:1009C000808361E08DE00E94050261E08CE00E947E
:1009D0000502C3E060E08C2F0E940502CF5FCC309F
:1009E000C9F782E292E00E94AF02892B09F48AC023
:1009F000C6E1D2E02FB7F89480911E0290911F02B9
:100A0000A0912002B09121022FBF80932A029093DF
:100A10002B02A0932C02B0932D0282E292E00E945E
:100A20008D0297FF60C12FB7F89480911E029091BC
:100A30001F02A0912002B09121022FBF40912A02F3
:100A400050912B0260912C0270912D02841B950B0A
:100A5000A60BB70B40912602509127026091280205
:100A60007091290284179507A607B707B0F2E091A5
:100A70001602E153E93008F045C00E2E000CFF0BC2
:100A80008827EA5BFA4F8F4F0C944A084F0591056F
:100A9000AC05C705E205FD05180633064E0683E0E2
:100AA0000E947A01019789F180911702813369F5DB
:100AB00082E192E00E94850386E30E943602BC0137
:100AC000990F880B990B0E94A90626EF38E24CE992
:100AD00050E40E94E40620E030E040E251E40E944D
:100AE000A2070E94140820911702213309F0F1C0D7
:100AF000645271096830710508F4F2C082E192E035
:100B00000E9485030E9454036CCF83E00E947A0107
:100B1000892B21F080911702803351F284E192E019
:100B2000C9CF84E00E947A01019721F080911702D9
:100B3000813361F084E00E947A01892B19F484E109
:100B400092E006C0809117028033C9F782E192E0FB
:100B50000E94850387E3B1CF85E00E947A01019767
:100B600021F080911702813361F085E00E947A01C3
:100B7000892B19F484E192E006C08091170280333A
:100B8000C9F782E192E00E94850388E396CF86E070
:100B90000E947A01019721F080911702813361F060
:100BA00086E00E947A01892B19F484E192E006C064
:100BB000809117028033C9F782E192E00E94850399
:100BC00089E37BCF87E00E947A01019721F0809131
:100BD0001702813361F087E00E947A01892B19F4B2
:100BE00084E192E006C0809117028033C9F782E168
:100BF00092E00E9485038AE360CF88E00E947A0138
:100C0000019721F080911702813361F088E00E9402
:100C10007A01892B19F484E192E006C080911702D1
:100C20008033C9F782E192E00E9485038BE345CFD0
:100C300089E00E947A01019721F0809117028133A7
:100C400061F089E00E947A01892B19F484E192E035
:100C500006C0809117028033C9F782E192E00E94BA
:100C600085038CE32ACF8AE00E947A01019721F064
:100C700080911702813361F08AE00E947A01892B0A
:100C800019F484E192E006C0809117028033C9F71D
:100C900082E192E00E9485038DE30FCF8BE00E94FA
:100CA0007A01019721F080911702813361F08BE086
:100CB0000E947A01892B19F484E192E006C08091A8
:100CC00017028033C9F782E192E00E9485038EE328
:100CD000F4CE203309F016CF6B3271050CF00ECF35
:100CE00084E192E00DCF899382E0C831D80709F002
:100CF00081CEBDCEE2E2F2E01382128288EE93E072
:100D0000A0E0B0E084839583A683B78384E092E07B
:100D10009183808385E391E09587848784E391E0E4
:100D20009787868780E391E0918B808B81E391E0C8
:100D3000938B828B82E391E0958B848B86E391E0A9
:100D4000978B868B118E128E138E148E0895E894D5
:100D500009C097FB3EF490958095709561957F4F03
:100D60008F4F9F4F9923A9F0F92F96E9BB279395B1
:100D7000F695879577956795B795F111F8CFFAF4C1
:100D8000BB0F11F460FF1BC06F5F7F4F8F4F9F4FF2
:100D900016C0882311F096E911C0772321F09EE850
:100DA000872F762F05C0662371F096E8862F70E0B6
:100DB00060E02AF09A95660F771F881FDAF7880F90
:100DC0009695879597F908950E94F7060C94680701
:100DD0000E945A0738F00E94610720F0952311F015
:100DE0000C9451070C94570711240C949C070E94F3
:100DF000790770F3959FC1F3950F50E0551F629FDF
:100E0000F001729FBB27F00DB11D639FAA27F00D63
:100E1000B11DAA1F649F6627B00DA11D661F829F8A
:100E20002227B00DA11D621F739FB00DA11D621F6F
:100E3000839FA00D611D221F749F3327A00D611D8C
:100E4000231F849F600D211D822F762F6A2F11246E
:100E50009F5750409AF0F1F088234AF0EE0FFF1FA1
:100E6000BB1F661F771F881F91505040A9F79E3FF8
:100E7000510580F00C9451070C949C075F3FE4F3FC
:100E8000983ED4F3869577956795B795F795E7954E
:100E90009F5FC1F7FE2B880F911D9695879597F957
:100EA000089597F99F6780E870E060E008959FEFEC
:100EB00080EC089500240A941616170618060906F1
:100EC000089500240A9412161306140605060895C0
:100ED000092E0394000C11F4882352F0BB0F40F448
:100EE000BF2B11F460FF04C06F5F7F4F8F4F9F4F88
:100EF000089557FD9058440F551F59F05F3F71F00A
:100F00004795880F97FB991F61F09F3F79F0879570
:100F10000895121613061406551FF2CF4695F1DFF9
:100F200008C0161617061806991FF1CF8695710589
:100F3000610508940895E894BB2766277727CB01BD
:100F400097F908950E94B6070C9468070E946107FC
:100F500058F00E945A0740F029F45F3F29F00C94A2
:100F6000510751110C949C070C9457070E94790764
:100F700068F39923B1F3552391F3951B550BBB27C8
:100F8000AA2762177307840738F09F5F5F4F220F0D
:100F9000331F441FAA1FA9F335D00E2E3AF0E0E804
:100FA00032D091505040E695001CCAF72BD0FE2F4E
:100FB00029D0660F771F881FBB1F261737074807E2
:100FC000AB07B0E809F0BB0B802DBF01FF2793589A
:100FD0005F4F3AF09E3F510578F00C9451070C9406
:100FE0009C075F3FE4F3983ED4F386957795679529
:100FF000B795F7959F5FC9F7880F911D96958795CF
:1010000097F90895E1E0660F771F881FBB1F6217ED
:1010100073078407BA0720F0621B730B840BBA0BAB
:10102000EE1F88F7E09508950E941B086894B1119F
:101030000C949C0708950E94810788F09F5798F0B0
:10104000B92F9927B751B0F0E1F0660F771F881FCD
:10105000991F1AF0BA95C9F714C0B13091F00E94E7
:101060009B07B1E008950C949B07672F782F882782
:10107000B85F39F0B93FCCF3869577956795B3950E
:10108000D9F73EF490958095709561957F4F8F4F7D
:101090009F4F0895EE0FFF1F881F8BBF0790F6919B
:0810A000E02D1994F894FFCF34
:1010A80000000000E70251027E023403AF028D0205
:0610B800A102310030002E
:00000001FF
