:100000000C948E010C94BF010C94BF010C94BF01A1
:100010000C94BF010C94BF010C94BF010C94BF0160
:100020000C94BF010C94BF010C94BF010C94BF0150
:100030000C94BF010C94BF010C94BF010C94BF0140
:100040000C94BF010C94BF010C94BF010C94BF0130
:100050000C94BF010C94BF010C94BF010C94F12EC1
:100060000C94BF010C940D300C94E32F0C94BF0141
:100070000C94BF010C94BF010C94BF010C94BF0100
:100080000C94BF010C94BF010C94BF010C94BF01F0
:100090000C94B92F0C948F2F0C94BF010C94BF01BA
:1000A0000C94BF010C94BF010C94BF010C94BF01D0
:1000B0000C94BF010C94BF010C94BF010C94BF01C0
:1000C0000C94BF010C94BF010C94BF010C94BF01B0
:1000D0000C94BF010C94BF010C94652F0C943B2F22
:1000E0000C94BF010C94AF060C94E2060C946F04C0
:1000F0000C9466030C94CD060C94E8060C949006C0
:100100000C94AC030C9497060C9414020C94B80550
:100110000C9437300C9457030C94E5060C94A3060A
:100120000C94EB060C94B8060C940C020C94100280
:100130000C94A0060C944B020C949D060C94AC06F7
:100140000C94DC060C9494060C94BC050C94770873
:100150000C94BC040C942F020C94B2050C94B605BC
:100160000C9439020C943D020C94D9060C94C706E9
:100170000C9418020C94C4060C94BB030C94230436
:100180000C94DF060C94BB060C9433020C94D0063E
:100190000C949A060C9447020C94AE050C94210220
:1001A0000C94D3060C94A6060C94B5060C94AB05DF
:1001B0000C94BE060C94BA050C941B020C94B0056A
:1001C0000C94A9060C94C1060C94CA060C94D6068D
:1001D0000C94B9320C9406020C94B4050C944102B0
:1001E0000C94B2060C9425020C942B020C9446023B
:1001F0000C9415040C940505000021002400270030
:100200002A002D0030003300010100000401070125
:100210000A0100002200250028002B002E003100DA
:10022000340002010000050108010B01000020005C
:100230002300260029002C002F00320000010000BE
:100240000301060109010505050507050808080859
:10025000020202020A0A080804040404010101015E
:100260000101010103030303030303030407070759
:100270000C0C0C0C0C0C0C0C0202020206060606FE
:10028000060606060B0B0B0B0B0B0B0B01021020CB
:1002900020080810204010204080020102010804BC
:1002A0000201010204081020408080402010080450
:1002B00002018004020180402010080402010804A9
:1002C00002010102040810204080010204081020ED
:1002D000408000000A0B02090C0D0E080703040100
:1002E000000000000000000000000000000000000E
:1002F00000000000000000000000000000001211DB
:1003000010000000000000000000000000000000DD
:1003100000000000000000003730B93211241FBE79
:10032000CFEFD1E2DEBFCDBF00E00CBF24E1AAEBEE
:10033000B1E101C01D92A136B207E1F711E1A0E0E1
:10034000B2E0E4E9FBE600E00BBF02C007900D92CB
:10035000AA3BB107D9F711E0CDE8D1E000E006C033
:1003600021970109802FFE010E948233CC38D107EA
:1003700080E00807A9F70E94EA310C94B8350C9484
:100380000000FC01A089B18982E08C93A485B58529
:100390001C92A685B7858FEC8C93108EA489B589A5
:1003A00086E08C93A289B3898C9180618C93A28919
:1003B000B3898C9188608C93A289B3898C91806871
:1003C0008C930288F389E02D80818F7D808308954E
:1003D0008150823108F05AC0E82FF0E08827EC50B5
:1003E000FE4F8F4F0C9482331402180206020C0247
:1003F000100246021B02210225022B022F023302A9
:1004000039023D024602410247024B0280918000C0
:100410008F77809380000895809180008F7DF9CF41
:1004200080918000877FF5CF84B58F7784BD089554
:1004300084B58F7DFBCF8091B0008F778093B00023
:1004400008958091B0008F7DF9CF809190008F77D3
:10045000809390000895809190008F7DF9CF8091D6
:100460009000877FF5CF8091A0008F778093A000C8
:1004700008958091A0008F7DF9CF8091A000877FA3
:10048000F5CF809120018F7780932001089580918E
:1004900020018F7DF9CF80912001877FF5CFCF9309
:1004A000DF93282F30E0F901EE52FD4F8491F901DE
:1004B000E457FD4FD491F901EA5BFD4FC491CC2381
:1004C000A1F081110E94E801EC2FF0E0EE0FFF1F78
:1004D000E45DFD4FA591B491EC91ED2381E090E0B6
:1004E00009F480E0DF91CF91089580E090E0FACFA9
:1004F0001F93CF93DF93282F30E0F901EE52FD4F89
:100500008491F901E457FD4FD491F901EA5BFD4F65
:10051000C491CC23A9F0162F81110E94E801EC2F81
:10052000F0E0EE0FFF1FEE5EFD4FA591B4918FB787
:10053000F894EC91111108C0D095DE23DC938FBFA5
:10054000DF91CF911F910895DE2BF8CFCF93DF93EA
:1005500090E0FC01E457FD4F24918A5B9D4FFC0124
:1005600084918823C9F090E0880F991FFC01E8501E
:10057000FE4FA591B491FC01EE5EFD4FC591D49163
:1005800061110DC09FB7F8948C91209582238C93B4
:100590008881282328839FBFDF91CF9108956230FF
:1005A00051F49FB7F8943C91822F809583238C93CC
:1005B000E8812E2BEFCF8FB7F894EC912E2B2C9354
:1005C0008FBFEACF3FB7F8948091DE119091DF1191
:1005D000A091E011B091E11126B5A89B05C02F3F75
:1005E00019F00196A11DB11D3FBFBA2FA92F982F59
:1005F0008827BC01CD01620F711D811D911D42E054
:10060000660F771F881F991F4A95D1F708958F921B
:100610009F92AF92BF92CF92DF92EF92FF924B01E7
:100620005C010E94E2026B017C010E94E2026C19F3
:100630007D098E099F09683E734081059105A8F3E5
:1006400021E0821A9108A108B10888EEC80E83E063
:10065000D81EE11CF11C81149104A104B10429F7F6
:10066000FF90EF90DF90CF90BF90AF909F908F90D2
:1006700008952FB7F8946091DA117091DB11809191
:10068000DC119091DD112FBF0895FC01248135818B
:100690006217730720F480819181009729F41092EA
:1006A000D41184ED91E10895860F971F0895089560
:1006B000DB0114964D915C9115976D917C91DC0155
:1006C000ED91FC910280F381E02D1994AF92BF92DD
:1006D000CF92DF92EF92FF920F931F93CF93DF930E
:1006E0006C017B018B01040F151FEB015E01AE183D
:1006F000BF08C017D10759F06991D601ED91FC915F
:100700000190F081E02DC6011995892B79F7C5017B
:10071000DF91CF911F910F91FF90EF90DF90CF90DD
:10072000BF90AF900895FC01A089B1898C91A689F2
:10073000B78982FD0FC09C91818D8F5F8F73228D51
:10074000821749F0A18DAE0FBF2FB11D5D969C930E
:10075000818F08958C910895FC01538D448D252F30
:1007600030E0842F90E0821B930B541710F0CF964B
:10077000089501970895FC01918D828D981761F07D
:10078000A28DAE0FBF2FB11D5D968C91928D9F5F94
:100790009F73928F90E008958FEF9FEF08950F93CE
:1007A0001F93CF93DF93EC010E9439036887798709
:1007B0008A879B87CE010E94BB0397FF15C00E94CA
:1007C0003903088519852A853B85601B710B820BCF
:1007D000930B0C811D812E813F8160177107820769
:1007E000930740F38FEF9FEFDF91CF911F910F9110
:1007F0000895CF93DF93EC0182EE91E10E94CF0345
:1008000097FD0DC0888382EE91E10E94CF0397FD92
:1008100009C0898382E090E0DF91CF91089590E054
:1008200080E0FACF81E090E0F7CFFC01918D828DDE
:10083000981731F0828DE80FF11D858D90E00895B5
:100840008FEF9FEF0895FC01918D228D892F90E00D
:10085000805C9F4F821B91098F739927089582EEC8
:1008600091E10E94230421E0892B09F420E0822FEA
:1008700008958FE792E10E94230421E0892B09F477
:1008800020E0822F08958CE193E10E94230421E06F
:10089000892B09F420E0822F0895FC01A48DA80F74
:1008A000B92FB11DA35ABF4F2C91848D90E00196B2
:1008B0008F739927848FA689B7892C93A089B189D2
:1008C0008C91837080648C93938D848D981306C073
:1008D0000288F389E02D80818F7D80830895EF92D7
:1008E000FF920F931F93CF93DF93EC0181E0888FEA
:1008F0009B8D8C8D98131AC0E889F989808185FFBA
:1009000015C09FB7F894EE89FF896083E889F9895B
:1009100080818370806480839FBF81E090E0DF915D
:10092000CF911F910F91FF90EF900895F62E0B8DB0
:1009300010E00F5F1F4F0F731127E02E8C8D8E116B
:100940000CC00FB607FCFACFE889F989808185FFD2
:10095000F5CFCE010E944D04F1CFEB8DEC0FFD2FB2
:10096000F11DE35AFF4FF0829FB7F8940B8FEA898D
:10097000FB8980818062CFCFCF93DF93EC01888D9C
:100980008823B9F0AA89BB89E889F9898C9185FD0A
:1009900003C0808186FD0DC00FB607FCF7CF8C9198
:1009A00085FFF2CF808185FFEDCFCE010E944D04FF
:1009B000E9CFDF91CF91089580E090E0892B29F075
:1009C0000E94430481110E94000080E090E0892B86
:1009D00029F00E94390481110E94000080E090E01B
:1009E000892B49F080E090E0892B29F00E940000DB
:1009F00081110E94000080E090E0892B29F00E9484
:100A00002F0481110C940000089590E080E0089577
:100A1000CF92DF92EF92FF92CF93DF930E94390340
:100A2000EB010E9439030E9439036B0182EE91E1D0
:100A30000E942304892B29F082EE91E10E94BB03DE
:100A4000F5CFCC1ADD0A88EEC81683E0D8065CF331
:100A500082EE91E10E942304892B29F7DF91CF9147
:100A6000FF90EF90DF90CF900895DF92EF92FF928A
:100A70000F931F93CF93DF93CDB7DEB72C970FB6AD
:100A8000F894DEBF0FBECDBF33E3E32E3AE0F32E82
:100A900010E000E0F701D080F2E0EF0EF11C60E022
:100AA0008D2D0E9478028AE10E944F020097B9F0D2
:100AB0008BE10E944F02892B81F08CE10E944F0252
:100AC000892B91F161E08D2D0E9478020F5F1F4FFD
:100AD00004301105F9F680E219C081E090E02CE0C5
:100AE000E7E2FAE0DE01119601900D922A95E1F716
:100AF000F801EE0FFF1FE00FF11F21E030E02C0F97
:100B00003D1FE20FF31FE80FF91F80812C960FB6EF
:100B1000F894DEBF0FBECDBFDF91CF911F910F9133
:100B2000FF90EF90DF90089582E090E0D8CFFC0135
:100B30003197E930F10580F48827EE55FA4F8F4F51
:100B40000C948233AB05AE05B005B205B405B6050D
:100B5000B805BA05BC0521E3822F089522E3FCCF36
:100B600023E3FACF24E3F8CF25E3F6CF26E3F4CF4F
:100B700027E3F2CF28E3F0CF29E3EECFCF92DF9245
:100B8000EF92FF920F931F93CF93DF931F921F92C9
:100B9000CDB7DEB769834A83880F991F00915B1434
:100BA00010915C14000F111FE5E0F4E19F01255046
:100BB00034412017310714F41192F8CF2981FC0138
:100BC000EB5FFB4E21838A81808360E08091591422
:100BD0000E9478021016110604F501501109F8015F
:100BE000EB5FFB4EE080D0905714C090551488E026
:100BF000F82E6E2D661F6627661F8C2D0E947802C8
:100C0000EE0C61E08D2D0E94780260E08D2D0E9437
:100C10007802FA94F110EDCFDDCF61E080915914A4
:100C20000F900F90DF91CF911F910F91FF90EF9058
:100C3000DF90CF900C94780220E830E002C0359528
:100C400027956A95E2F7FC01EB5FFB4E5089442340
:100C500049F0252B208B61E0680F408990E080E00F
:100C60000C94BE0520952523F5CFEF92FF920F93AC
:100C70001F93CF93DF937C0110E000E0D0E0C0E051
:100C800080915B1490915C141816190664F441E08D
:100C9000F701EC0FFD1F8081813009F040E0BE01BB
:100CA000C8010E941C062196C830D10549F70F5F84
:100CB0001F4F88E0E80EF11C08301105F9F6DF91AE
:100CC000CF911F910F91FF90EF9008958F31910573
:100CD00008F084C0FC018827EF58F94F8F4F0C941F
:100CE00082339006940697069A069D06A006A306F0
:100CF000A606A906AC06AF06B206B506B806BB0640
:100D0000BE06C106C406C706CA06CD06D006D3066F
:100D1000D606D906DC06DF06E206E506E806EB069F
:100D200081EE99E00C94350681EA99E0FBCF81E6EB
:100D300099E0F8CF81E299E0F5CF81EE98E0F2CF2B
:100D400081EA98E0EFCF81E698E0ECCF81E298E08D
:100D5000E9CF81EE97E0E6CF81EA97E0E3CF81E645
:100D600097E0E0CF81E297E0DDCF81EE96E0DACF49
:100D700081EA96E0D7CF81E696E0D4CF81E296E093
:100D8000D1CF81EE95E0CECF81EA95E0CBCF81E661
:100D900095E0C8CF81E295E0C5CF81EE94E0C2CF67
:100DA00081EA94E0BFCF81E694E0BCCF81E294E099
:100DB000B9CF81EE93E0B6CF81EA93E0B3CF81E67D
:100DC00093E0B0CF81E293E0ADCF81EE92E0AACF85
:100DD00081EA92E0A7CF81E692E0A4CF0895EF9256
:100DE000FF920F931F93CF93DF9380E0E82E82E072
:100DF000F82E10E000E0D0E0C0E080915B1490910C
:100E00005C141816190664F441E0F701EC0FFD1F9D
:100E10008081813009F040E0BE01C8010E941C06BB
:100E20002196C830D10549F70F5F1F4F88E0E80EC3
:100E3000F11C08301105F9F6DF91CF911F910F9148
:100E4000FF90EF900895CF93DF93EC0160E08E81E7
:100E50000E94780261E08E810E94780260E08E81BB
:100E60000E9478028BE891E00197F1F7DF91CF9132
:100E70000895CF92DF92EF92FF920F931F93CF933B
:100E8000DF936C017C0187E0E80EF11CD0E0C0E04C
:100E9000062F10E0B8010C2E02C0759567950A94D4
:100EA000E2F76170F70181917F010E94780221963B
:100EB000C430D10579F7C601DF91CF911F910F9111
:100EC000FF90EF90DF90CF900C942307CF92DF92AA
:100ED000EF92FF920F931F93CF93DF93EC01F62EC7
:100EE000642F8C810E9478028D818F3F19F060E021
:100EF0000E9478020F2D10E08F8584FF25C06E01BF
:100F000087E0C80ED11CF12CE12CB8010E2C02C0D8
:100F1000759567950A94E2F76170F60181916F010A
:100F20000E947802FFEFEF1AFF0A88E0E816F1044A
:100F300061F7CE01DF91CF911F910F91FF90EF905C
:100F4000DF90CF900C942307B80184E075956795E6
:100F50008A95E1F7CE010E9439076F2DCE01DF910E
:100F6000CF911F910F91FF90EF90DF90CF900C9455
:100F7000390740E0682F8FEC93E10C94660781E01D
:100F80000E94B9078BE39FE10197F1F708959091D3
:100F9000E213691710F06FEF690FE62FF0E0E153ED
:100FA000FC4E9489890F80680C94B907CF93DF9326
:100FB000813029F09091DE1398609093DE13809336
:100FC000E2131092E31380E48093E41380E18093B2
:100FD000E51380E58093E61361E08091D3130E94CE
:100FE000A6028091D4138F3F19F061E00E94A602FF
:100FF00061E08091D5130E94A602CFECD3E19E015F
:101000002F5C33418091DE1384FD0BC084E090E0BF
:1010100021962817390744F461E08E810E94A602C8
:10102000EECF88E090E0F4CF8BE39DE00197F1F7FD
:1010300060E08091D3130E94780260E08091D51324
:101040000E9478028091D4138F3F19F060E00E94D3
:1010500078028091DE1384FD34C063E08FEC93E16D
:101060000E943907CBE4D6E4CE010197F1F763E0A3
:101070008FEC93E10E9439072197F1F763E08FEC41
:1010800093E10E94390783E592E00197F1F762E06E
:101090008FEC93E10E9439078091DE1380620E94F9
:1010A000B90784E08093DF138CE00E94B9070E94A7
:1010B000BF0782E08093E01386E0DF91CF910C942C
:1010C000B90780620E94B9078BE496E40197F1F7B3
:1010D0008091DE1380620E94B90783E592E0019758
:1010E000F1F78091DE1380620E94B907D5CF41E00D
:1010F0000E94660781E090E00895CF92DF92EF9220
:10110000FF920F931F93CF93DF93EB017B0121E1BC
:10111000E20EF11C8B016C01C61AD70AC601800FC2
:10112000911F0E944A33F80181938F01EE15FF054C
:10113000A9F7CE01DF91CF911F910F91FF90EF9012
:10114000DF90CF900895CF92DF92EF92FF920F93AE
:101150001F93CF93DF93EB017B0123E2E20EF11C9F
:101160008B016C01C61AD70AC601800F911F0E941D
:101170004A33F80181938F01EE15FF05A9F7CE01DF
:10118000DF91CF911F910F91FF90EF90DF90CF9063
:1011900008950F931F93CF93DF938C01EB010E946F
:1011A0004A338883C80101960E944A338983CE015D
:1011B000DF91CF911F910F910895EF92FF920F93BE
:1011C0001F93CF93DF931F921F92CDB7DEB77C01A1
:1011D00004E010E0BE016F5F7F4FC8010E94C908A4
:1011E00089819A818E159F0579F00E5F1F4F063118
:1011F000110581F780E00F900F90DF91CF911F9143
:101200000F91FF90EF90089581E0F5CFCF92DF929C
:10121000EF92FF921F93CF93DF931F921F92CDB750
:10122000DEB784E0C82ED12CF12CE12C11E0BE01F8
:101230006F5F7F4FC6010E94C9088FEFE81AF80A56
:1012400089819A81892B09F483C081E0E816F10431
:10125000D9F4109300021093010210930802109326
:10126000090282E0C80ED11C86E1C816D104F9F645
:101270000E94EF060F900F90DF91CF911F91FF908A
:10128000EF90DF90CF90089582E0E816F10449F4E2
:10129000109303021093040210930B0210930C029C
:1012A000E0CF83E0E816F10449F4109306021093AE
:1012B000070210930E0210930F02D3CF84E0E816BA
:1012C000F10449F4109318021093190210932002AC
:1012D00010932102C6CF85E0E816F10449F410937B
:1012E0001B0210931C021093230210932402B9CF07
:1012F00086E0E816F10449F410931E0210931F02D1
:101300001093260210932702ACCF87E0E816F10471
:1013100049F4109330021093310210933802109365
:1013200039029FCF88E0E816F10449F410933302A4
:101330001093340210933B0210933C0292CF10930F
:1013400036021093370210933E0210933F0289CF6A
:1013500081E0E816F10449F41092000210920102B3
:1013600010920802109209027CCF82E0E816F10484
:1013700049F4109203021092040210920B02109290
:101380000C026FCF83E0E816F10449F410920602D4
:101390001092070210920E0210920F0262CF84E0A8
:1013A000E816F10449F410921802109219021092F2
:1013B00020021092210255CF85E0E816F10449F48D
:1013C00010921B0210921C0210922302109224020F
:1013D00048CF86E0E816F10449F410921E021092FC
:1013E0001F0210922602109227023BCF87E0E816D8
:1013F000F10449F410923002109231021092380236
:10140000109239022ECF88E0E816F10449F41092C8
:1014100033021092340210923B0210923C0221CF10
:10142000109236021092370210923E0210923F0242
:1014300018CFFB0101900020E9F73197AF01461B5F
:10144000570BDC01ED91FC910280F381E02D1994A2
:101450004F925F926F927F928F929F92AF92BF92C4
:10146000CF92DF92EF92FF920F931F93CF93DF9370
:10147000CDB7DEB7A1970FB6F894DEBF0FBECDBFD4
:101480008C016B01770FEE08FF08F7FE49C0DC0105
:10149000ED91FC910190F081E02D6DE219955C01D8
:1014A00022273327A9012C193D094E095F0919A2EA
:1014B000FE01B1967F019AE0492E512C612C712CCE
:1014C000CA01B901A30192010E946033605DD70196
:1014D0006E937D01211531054105510589F790E095
:1014E00080E0109721F0BD01C8010E94190A8A0D01
:1014F0009B1DA1960FB6F894DEBF0FBECDBFDF9146
:10150000CF911F910F91FF90EF90DF90CF90BF9000
:10151000AF909F908F907F906F905F904F900895C5
:10152000A701960119A2FE01B1967F018AE0882EDB
:10153000912CA12CB12CCA01B901A50194010E94E2
:101540006033605DD7016E937D0121153105410542
:10155000510589F790E080E0109759F2BD01C8016C
:101560000E94190AC6CFCF93DF93BC018CE193E1AF
:101570000E94280AEC0169E57AE08CE193E10E947F
:10158000190A8C0F9D1FDF91CF910895CF93DF93A0
:10159000BC018CE193E10E945803EC0169E57AE01B
:1015A0008CE193E10E94190A8C0F9D1FDF91CF916E
:1015B0000895CF93DF93BC018CE193E10E94190A57
:1015C000EC0169E57AE08CE193E10E94190A8C0F45
:1015D0009D1FDF91CF910895CF93DF93682F8CE10A
:1015E00093E10E946F04EC0169E57AE08CE193E1FC
:1015F0000E94190A8C0F9D1FDF91CF9108950C94C2
:10160000190AEF92FF920F931F93CF93DF937C0100
:10161000FC01848195810897059708F053C010E07C
:1016200000E0D0E0C0E0F701848195810817190738
:10163000E8F5B801C7010E944503FC0180819FEBDA
:10164000980F9A3168F180538A3070F10E94BF0779
:1016500060E080E00E94C7076CE57AE08FEC93E1E0
:101660000E94FF0A61E080E00E94C70764E67AE01A
:101670008FEC93E10E94FF0A62E080E00E94C707BE
:1016800060E77AE08FEC93E10E94FF0A64EF71E07B
:1016900080E090E00E9407030E94BF07C0E00AC0FC
:1016A000C1E00F5F1F4FBFCFD1E0FBCFD11127C0EB
:1016B000CC2361F28C2FDF91CF911F910F91FF907E
:1016C000EF9008950E94BF0760E080E00E94C70786
:1016D0006CE57AE08FEC93E10E94FF0A61E080E024
:1016E0000E94C70761E87AE08FEC93E10E94FF0A4D
:1016F00062E080E00E94C70761E97AE0C3CFCD2FA6
:10170000D9CF0F931F93CF93DF938C01FC0184817A
:101710009581089709F046C0D0E0C0E080E0F8016C
:1017200024813581C217D307B0F5BE01C8010E94DC
:101730004503FC01808180538A3050F10E94BF072D
:1017400060E080E00E94C70768EA7AE08FEC93E1EE
:101750000E94FF0A61E080E00E94C70764E67AE029
:101760008FEC93E10E94FF0A62E080E00E94C707CD
:101770006CE97AE08FEC93E10E94FF0A64EF71E07C
:1017800080E090E00E9407030E94BF0780E005C050
:10179000219681E0C4CF882389F2DF91CF911F91F8
:1017A0000F9108950E94BF0760E080E00E94C70784
:1017B00064EA7AE08FEC93E10E94FF0A61E080E046
:1017C0000E94C70761EB7AE08FEC93E10E94FF0A69
:1017D00062E080E00E94C7076CEB7AE0CBCFDF923B
:1017E000EF92FF920F931F93CF93DF937C01FC0145
:1017F000848195810897059708F072C010E000E099
:10180000C0E0D0E0D12CF701848195810817190739
:1018100008F055C0B801C7010E944503FC01808152
:101820009FEB980F9A3108F441C090ED980F9A30D1
:1018300008F440C08A3209F440C08132F1F1835289
:101840008230D8F10E94BF0760E080E00E94C707A5
:1018500066EC7AE08FEC93E10E94FF0A61E080E0A1
:101860000E94C70763ED7AE08FEC93E10E94FF0AC4
:1018700062E080E00E94C70762EE7AE08FEC93E1BD
:101880000E94FF0A63E080E00E94C70761EF7AE0F0
:101890008FEC93E10E94FF0A64EF71E080E090E03A
:1018A0000E9407030E94BF07C0E011C0D1E00F5F94
:1018B0001F4FA9CFDD24D394FACFC1E0F8CFDD20AC
:1018C00009F2DD2309F4BECFCC2309F4BBCF8C2F62
:1018D000DF91CF911F910F91FF90EF90DF900895CE
:1018E0000E94BF0760E080E00E94C70766EC7AE0D4
:1018F0008FEC93E10E94FF0A61E080E00E94C7073D
:1019000061E87AE08FEC93E10E94FF0A62E080E0F8
:101910000E94C70761E97AE0BBCFCF92DF92EF92D6
:10192000FF920F931F93CF93DF931F921F92CDB718
:10193000DEB76C010E94BF0784E0E82EF12C10E0B6
:1019400000E0BE016F5F7F4FC7010E94C9080F5FB3
:101950001F4F89819A818C159D05F1F460E080E02C
:101960000E94C70761E07BE08FEC93E10E94FF0AD1
:1019700061E08FEF800F0E94C707B8018FEC93E101
:101980000E94280A61E0802F0E94C7076DE07BE07B
:101990008FEC93E10E94FF0A82E0E80EF11C09300F
:1019A000110579F60F900F90DF91CF911F910F9154
:1019B000FF90EF90DF90CF9008950F931F93CF93F8
:1019C000DF93FC01048115810115110539F4FB0138
:1019D0001082DF91CF911F910F91089541505109CD
:1019E0004017510708F48A01EB01FC016081718105
:1019F000A801CE010E94A935C00FD11F1882E9CFDE
:101A0000FC0124813581232B31F421E0FB01672B7C
:101A100049F4822F0895808191816115710539F40F
:101A200021E0FC0180818823A1F320E0F2CF0E9415
:101A3000993521E0892B69F3F8CFFC0124813581A8
:101A4000FB014481558124173507E1F4FC018081B5
:101A50009181FB01608171810097D1F06115710561
:101A6000A1F4232BC1F0FC01808190E008C0232B5E
:101A700091F0FB01808190E091958195910921E0A1
:101A8000892B09F020E0822F08950E949935F7CF25
:101A90006115710561F721E0F6CF0F931F93CF9386
:101AA000DF938C01EB01FC01808191810097E1F0D3
:101AB0006881798161157105A9F0428153812C817A
:101AC0003D814217530770F00E94A2358C819D81A1
:101AD000F801958384831D821C82DF91CF911F9131
:101AE0000F9108950E94263488819981F80191838D
:101AF00080838A819B81938382838C819D8195835E
:101B00008483198218821B821A82E5CFCF93DF93D8
:101B1000EC0188819981009711F00E942634198286
:101B200018821D821C821B821A82DF91CF91089538
:101B3000FC0180819181009711F00C942634089566
:101B40000F931F93CF93DF93EC01888199810097C6
:101B500059F02A813B812617370730F081E0DF9169
:101B6000CF911F910F9108958B016F5F7F4F0E945E
:101B7000AF34009759F0998388831B830A832C81A3
:101B80003D81232B59F7FC011082E8CF80E0E7CF9D
:101B9000EF92FF920F931F93CF93DF93611571051F
:101BA00041F480E0DF91CF911F910F91FF90EF9072
:101BB000089541155105B1F07B01EC010C811D81A7
:101BC000040F151FB8010E94A00D882351F328812E
:101BD00039818C819D81B701820F931F0E94A235AC
:101BE0001D830C8381E0DECFCF93DF93EC0141E0D6
:101BF00050E061EA7BE00E94C80D811103C0CE0174
:101C00000E94860DCE01DF91CF910895CF93DF938F
:101C1000EC01FB0144815581608171810E94C80DF6
:101C2000811103C0CE010E94860DCE01DF91CF91BC
:101C30000895CF93DF931F921F92CDB7DEB76983CC
:101C40001A8241E050E0BE016F5F7F4F0E94C80DD5
:101C50000F900F90DF91CF910895CF938091C7118E
:101C60009091C811892B21F490E080E00E946606D3
:101C70000E943505C82F803221F11092CA111092AE
:101C8000C91160E17BE08CE193E10E94FF0A809141
:101C9000C9119091CA110E94B30A61E970E080E015
:101CA00090E00E940703CA32B1F48091C71190916D
:101CB000C811009741F48FE190E09093C811809390
:101CC000C711CF91089501979093C8118093C711C0
:101CD000CF910C946606C33271F48091C711909134
:101CE000C8118F31910529F41092C8111092C711B3
:101CF000E8CF0196E9CFC03361F4E091C711F091CC
:101D0000C811EE5BFD4F60818FEF93E1CF910C9492
:101D1000190E8091D111882319F01092D111D1CFD1
:101D20006C2FF2CFEF92FF920F931F93CF93DF931D
:101D3000EC017B018A01BA010E94A00D81110BC048
:101D4000CE010E94860DCE01DF91CF911F910F91A0
:101D5000FF90EF9008951D830C83B70188819981CE
:101D60000E94A235F0CFFB0101900020E9F73197E6
:101D7000AF01461B570B0C94920E0F931F93CF93FA
:101D8000DF93CDB7DEB762970FB6F894DEBF0FBE14
:101D9000CDBF8C01CB01F801118210821382128217
:101DA000158214824AE0BE016F5F7F4F0E940033AC
:101DB000BE016F5F7F4FC8010E94B30E62960FB6DF
:101DC000F894DEBF0FBECDBFDF91CF911F910F9171
:101DD0000895CF93DF93EC010E94B30ECE01DF9103
:101DE000CF910895CF93DF931F921F92CDB7DEB7A7
:101DF000FC0111821082138212821582148269837F
:101E00001A82BE016F5F7F4F0E94B30E0F900F903A
:101E1000DF91CF910895CF92DF92EF92FF92CF930F
:101E2000DF930E943903EB010E9439030E943903BA
:101E30006B018FE792E10E942304892B29F08FE741
:101E400092E10E94BB03F5CFCC1ADD0A88EEC816DA
:101E500083E0D8065CF38FE792E10E942304892B8C
:101E600029F76BE57AE089EF93E1DF91CF91FF905D
:101E7000EF90DF90CF900C94B30E0E94BF0760E00C
:101E800080E00E94C70763E27BE08FEC93E10E9451
:101E9000FF0A61E080E00E94C70763E37BE08FEC0C
:101EA00093E10E94FF0A62E080E00E94C7076FE3AF
:101EB0007BE08FEC93E10E94FF0A6BE57AE08FEF05
:101EC00093E10E94B30E0E942D0E8FEF93E10E94CA
:101ED000C60A63E080E00E94C7076FEF73E18FECF2
:101EE00093E10E9458038DE00E944F02892B09F470
:101EF00065C068EC70E080E090E00E94070360E756
:101F00007FE08FEF93E10E94000D882331F08FE492
:101F10009BE00E94D90A81E008956FE87AE08FEF94
:101F200093E10E94000D882331F083E69BE00E943C
:101F3000D90A80E008950E94BF0760E080E00E9417
:101F4000C70763E77BE08FEC93E10E94FF0A61E043
:101F500080E00E94C70763E87BE08FEC93E10E947A
:101F6000FF0A6BE57AE08FEF93E10E94B30E68E51C
:101F700072E080E090E00E9407030E94BF0760E0EB
:101F800080E00E94C70763E27BE08FEC93E10E9450
:101F9000FF0A61E080E00E94C70763E37BE08FEC0B
:101FA00093E10E94FF0A61E080E00E94C7076FE3AF
:101FB0007BE08FEC93E10E94FF0A85CF8CE00E94CA
:101FC0004F02892B09F47FCF6BE57AE08FEF93E125
:101FD0000E94B30E63E080E00E94C70762E97BE0E5
:101FE000E8CFCF93DF93EC01FB018617970749F009
:101FF000608171816115710541F0448155810E94B4
:10200000920ECE01DF91CF9108950E94860DF9CFF7
:10201000FC011182108213821282158214820C94A8
:10202000F10FFF920F931F93CF93DF93EC01F42EE8
:102030000E94081010E000E08C819D8108171907AC
:1020400058F4B801CE010E944503FC0190819F2500
:1020500090830F5F1F4FF0CFCE01DF91CF911F9183
:102060000F91FF900895FC01118210821382128259
:1020700015821482FB0101900020E9F73197AF012E
:10208000461B570B0C94920ECF93DF9300D000D0D9
:10209000CDB7DEB70E94BF0761E083E00E94C707AB
:1020A00063EA7BE08FEC93E10E94FF0A62E083E049
:1020B0000E94C7076DEA7BE08FEC93E10E94FF0A64
:1020C0008FE792E10E942304892B51F16BE57AE0BE
:1020D000CE0101960E9433108FE792E10E94CF0358
:1020E00097FD09C08A30910531F0682FCE01019625
:1020F0000E94190EF1CFBE016F5F7F4F89EF93E110
:102100000E944D0DCE0101960E94980D69EB7BE077
:102110008CE193E10E94FF0A89EF93E10E94C60AD5
:1021200064EC7BE089EF93E10E94000D882341F28B
:102130000E94BF0761E083E00E94C7076EEC7BE06E
:102140008FEC93E10E94FF0A62E083E00E94C707E0
:1021500067ED7BE08FEC93E10E94FF0A68EE73E08D
:1021600080E090E00E9407030E94BF070E940B0FCF
:1021700026960FB6F894DEBF0FBECDBFDF91CF918C
:1021800008959F92AF92BF92CF92DF92EF92FF920B
:102190000F931F93CF93DF93CDB7DEB7E5970FB6BD
:1021A000F894DEBF0FBECDBF5C0163EE7BE0CE01D5
:1021B00001960E94331043E0BE016F5F7F4FCE0156
:1021C00084960E94111045E0BE016C5D7F4FCE01E8
:1021D0008A960E941110BE01665D7F4FC5010E9464
:1021E0001D0D182FCE018A960E94980DCE0184965F
:1021F0000E94980DCE0101960E94980D111146C0C3
:102200000AEB16E0BE016F5F7F4FC8010E94A30872
:10221000F12CE12C8AEBC82E86E0D82E8091CD13CC
:102220009091CE13E816F906D4F5BE016F5F7F4F8B
:10223000C6010E94A308BE016F5F7F4FCE01849646
:102240000E94331043E0BE016C5D7F4FCE018A9641
:102250000E94111045E0BE01665D7F4FCE01C09621
:102260000E941110B501CE01C0960E941D0D982E3E
:10227000CE01C0960E94980DCE018A960E94980DBC
:10228000CE0184960E94980D992011F081E00FC034
:1022900083E2C80ED11C8FEFE81AF80ABFCF0D5D9C
:1022A0001F4F063080E1180709F0ACCF80E0E596BB
:1022B0000FB6F894DEBF0FBECDBFDF91CF911F9157
:1022C0000F91FF90EF90DF90CF90BF90AF909F90D5
:1022D0000895AF92BF92CF92DF92EF92FF920F9349
:1022E0001F93CF93DF93CDB7DEB72C970FB6F8943B
:1022F000DEBF0FBECDBF7C016B018A01590160EFCB
:102300007BE0CE0101960E943310B601CE0101960A
:102310000E94060E0E94C60ACE0101960E94980DE8
:10232000B6018FE792E10E94580366E170E080E019
:1023300090E00E94070369EF7BE0CE0101960E94C6
:102340003310B801CE0101960E94060E0E94C60A03
:10235000CE0101960E94980DB8018FE792E10E948C
:1023600058030E94BF0760E080E00E94C707B501E4
:102370008FEC93E10E9458038FE792E10E942304BF
:10238000892B09F04EC061E080E00E94C70763E03E
:102390007CE08FEC93E10E94FF0A8CE00E944F02E8
:1023A000892B51F368EC70E080E090E00E94070315
:1023B000B6018FE792E10E94580366E170E080E089
:1023C00090E00E940703B8018FE792E10E94580352
:1023D00066E170E080E090E00E94070369EF7BE037
:1023E000CE0101960E943310B601CE0101960E94E3
:1023F000060E0E94C60ACE0101960E94980D69EF52
:102400007BE0CE0101960E943310B801CE01019607
:102410000E94060E0E94C60ACE0101960E94980DE7
:10242000ABCF8FE792E10E942304892B01F16BE58A
:102430007AE0CE0101960E9433108FE792E10E946C
:10244000CF0397FD09C08A30910531F0682FCE0186
:1024500001960E94190EF1CFBE016F5F7F4F89EF89
:1024600093E10E944D0DCE0101960E94980D61E00E
:1024700080E00E94C70765E97BE08FEC93E10E9452
:10248000FF0A61E080E00E94C70769EF73E1CE01B7
:1024900001960E940810BE016F5F7F4F8FEC93E1A1
:1024A0000E94580363E080E00E94C70760E17CE07F
:1024B0008FEC93E10E94FF0A0E940B0F8DE00E94B7
:1024C0004F02892B09F040C08CE00E944F02892BFB
:1024D000A9F368EC70E080E090E00E9407030E949E
:1024E000BF0760E080E00E94C7076AE17CE08FECF4
:1024F00093E10E94FF0A64EF71E080E090E00E94A7
:102500000703B8018FE792E10E94580366E170E08B
:1025100080E090E00E94070369EF7BE0CE01079620
:102520000E943310B801CE0107960E94060E0E9449
:10253000C60ACE0107960E94980D0E94BF07CE01E1
:1025400001960E94980D0FCF68EC70E080E090E05B
:102550000E9407036DED70E18FE792E10E94FF0A90
:10256000F701118210821382128215821482BE0139
:102570006F5F7F4FC7010E944D0DCE0101960E94F3
:10258000980DC7012C960FB6F894DEBF0FBECDBFD5
:10259000DF91CF911F910F91FF90EF90DF90CF903F
:1025A000BF90AF900895FF920F931F93CF93DF9347
:1025B000EC01F62E08811981C8010E944A33F816F1
:1025C00021F06F2DC8010E945233CE01DF91CF91CF
:1025D0001F910F91FF900895EF92FF920F931F9319
:1025E000CF93DF931F921F92CDB7DEB78C017B0193
:1025F0009A838983FB016081CE0101960E94D312E8
:102600000F5F1F4F1A830983F7016181CE01019685
:102610000E94D312C7010F900F90DF91CF911F91AD
:102620000F91FF90EF900895CF92DF92EF92FF927B
:102630000F931F93CF93DF93CDB7DEB7AE970FB64F
:10264000F894DEBF0FBECDBF8C018BE29CE00E94F0
:10265000D90A8091CB139091CC130E94B30A809138
:10266000CB139091CC138336910551F41092CC1377
:102670001092CB1386E190E0909341028093400248
:102680006BE57AE0CE0189960E9433107E0183E2E9
:10269000E80EF11CB801C7010E94081043E0B70121
:1026A000CE0142960E94111045E0BE016E5E7F4F42
:1026B000CE0101960E941110BE016F5F7F4FCE01C7
:1026C00089960E944D0DCE0101960E94980DCE0173
:1026D00042960E94980DC7010E94980D8091CB13DD
:1026E0009091CC139B8B8A8B4FE050E0BE016C5EC7
:1026F0007F4FCE0189960E94DD0C0091400210911F
:1027000041020F3FEFE01E0708F042C0BE016F5FBD
:102710007F4FC8010E947D088091CB139091CC130C
:1027200097FF02C090E080E021E1289F6001299F8F
:10273000D00C1124C00ED11E84E49CE00E94D90A62
:1027400064E670E080E090E00E9407038E010E5E78
:102750001F4FC01AD10AC601800F911F9CA38BA3E3
:10276000F80161918F01C7010E94D3120E151F0558
:1027700091F78091CB139091CC1301969093CC1349
:102780008093CB136BEC73E182E090E00E94EC123B
:10279000CE0189960E94980DAE960FB6F894DEBFD2
:1027A0000FBECDBFDF91CF911F910F91FF90EF90A2
:1027B000DF90CF900895CF92DF92FF920F931F93F7
:1027C000CF93DF93CDB7DEB7CF55D1090FB6F894CD
:1027D000DEBF0FBECDBF8091D2119091D311009773
:1027E00009F0F3C00E943D0F811185C089E59CE08E
:1027F0000E94D90A0E9444106DE57CE0CE018A96C1
:102800000E94331065E17FE0CE0184960E94331070
:1028100064E67CE0CE0101960E9433109E01265DA5
:102820003F4FAE014C5D5F4FBE016F5F7F4FCE01EA
:10283000C0960E946911BE01605D7F4F83EF93E1F6
:102840000E944D0DCE01C0960E94980DCE010196BA
:102850000E94980DCE0184960E94980DCE018A9612
:102860000E94980D63EF73E1CE0101960E9408105B
:10287000CE0101960E94C110182FCE0101960E9430
:10288000980D1123A9F081E090E09093D3118093EB
:10289000D211C15ADF4F0FB6F894DEBF0FBECDBFC5
:1028A000DF91CF911F910F91FF90DF90CF9008950E
:1028B0001092D3111092D2110E94BF0760E080E005
:1028C0000E94C70766E67CE08FEC93E10E94FF0A56
:1028D00061E080E00E94C70761E77CE08FEC93E154
:1028E0000E94FF0A68EE73E080E090E00E94070318
:1028F0000E94BF07CECF0E94BF076BE57AE08FEF43
:1029000093E10E94B30E1092D11161E080E00E9429
:10291000C7076CE77CE08FEC93E10E94FF0A62E05E
:1029200080E00E94C7070E942D0E6FEF73E18FECCD
:1029300093E10E9458038DE00E944F028C010197A1
:10294000A9F56FEF73E1CE0101960E940810CE0148
:1029500001960E94C110F82ECE0101960E94980D9A
:10296000FF2009F4A5CF64E670E080E090E00E94CB
:1029700007038FEF93E10E94C60A6FEF73E183EFC5
:1029800093E10E94F10F6BE57AE08FEF93E10E94F3
:10299000B30E0E94BF071093D3110093D21164E6C7
:1029A00070E080E090E00E94070373CF8CE00E940B
:1029B0004F02019709F0A7CF6BE57AE08FEF93E123
:1029C0000E94B30E0E94BF079ECF019709F061CF0E
:1029D00082E0C82ED12C0E943D0F182F8111B3C167
:1029E00089E59CE00E94D90A0E94441066E87CE0D8
:1029F000CE018A960E94331062E97CE0CE01849673
:102A00000E94331064E67CE0CE0101960E943310F0
:102A10009E01265D3F4FAE014C5D5F4FBE016F5F73
:102A20007F4FCE01C0960E946911BE01605D7F4F4D
:102A300087EE93E10E944D0DCE01C0960E94980D45
:102A4000CE0101960E94980DCE0184960E94980DA9
:102A5000CE018A960E94980D63EE7BE0CE018C5ADF
:102A60009F4F0E94331064E97CE0CE01865A9F4F4D
:102A70000E94331063EF73E1CE01C0960E940810EC
:102A800043E0BE01605D7F4FCE01C6960E941110EB
:102A900045E0BE016A5C7F4FCE01CC960E941110CA
:102AA000BE01645C7F4FCE018C5A9F4F0E941D0D6A
:102AB000882371F167EE73E1CE0101960E94081040
:102AC00043E0BE016F5F7F4FCE0184960E941110DC
:102AD00045E0BE016C5D7F4FCE018A960E941110C9
:102AE000BE01665D7F4FCE01865A9F4F0E941D0D2D
:102AF00011E0811101C010E0CE018A960E94980D6C
:102B0000CE0184960E94980DCE0101960E94980DE8
:102B1000CE01CC960E94980DCE01C6960E94980DCB
:102B2000CE01C0960E94980D1123B9F18BE99CE06B
:102B30000E94D90A84E090E09093D0118093CF1145
:102B40000E94BF0761E080E00E94C70764EB7CE061
:102B50008FEC93E10E94FF0A68EE73E080E090E062
:102B60000E9407030E94BF0765EC7CE0CE0101963E
:102B70000E943310CE0101960E941413CE010196DB
:102B80000E94980DCE01865A9F4F0E94980DCE014B
:102B90008C5A9F4F0E94980D7CCE0AEB16E0BE0126
:102BA0006F5F7F4FC8010E94A308BE016F5F7F4F18
:102BB000CE018A960E943310BE01695E7F4FCE011E
:102BC00084960E94331063EF73E1CE018E5B9F4FBA
:102BD0000E94081043E0BE016E5B7F4FCE01885B10
:102BE0009F4F0E94111045E0BE01685B7F4FCE01F0
:102BF000825B9F4F0E941110BE01665D7F4FCE0128
:102C0000825B9F4F0E941D0DF12C882371F167EEAE
:102C100073E1CE01C0960E94081043E0BE01605DE2
:102C20007F4FCE01C6960E94111045E0BE016A5C3E
:102C30007F4FCE01CC960E941110BE016C5D7F4F7C
:102C4000CE01CC960E941D0DFF24F394811101C08A
:102C5000F12CCE01CC960E94980DCE01C6960E9412
:102C6000980DCE01C0960E94980DCE01825B9F4FB9
:102C70000E94980DCE01885B9F4F0E94980DCE0157
:102C80008E5B9F4F0E94980DFF2009F44CC0CE012F
:102C900084960E94980DCE018A960E94980D6CE24F
:102CA00071E080E090E00E940703FF2009F49AC1E0
:102CB00081ED9CE00E94D90A0E94BF0761E082E09A
:102CC0000E94C70764EE7CE08FEC93E10E94FF0A4C
:102CD00062E082E00E94C70763EF73E18FEC93E14B
:102CE0000E9458036FEE7CE0CE0101960E943310E3
:102CF000CE0101960E941413CE0101960E94980DF8
:102D00006CE271E080E090E00E9407031093CE1126
:102D10000093CD110E94BF0785E090E09093D01101
:102D20008093CF112FCF0D5D1F4FCE0184960E944F
:102D3000980DCE018A960E94980D063080E1180702
:102D400009F02DCFACCF0E94BF076BE57AE08FEF83
:102D500093E10E94B30E1092D11161E080E00E94D5
:102D6000C70762E37DE08FEC93E10E94FF0A62E017
:102D700080E00E94C7070E942D0E6FEF73E18FEC79
:102D800093E10E9458038DE00E944F02019709F0E1
:102D90000BC164E670E080E090E00E9407036FEFF3
:102DA00073E187EE93E10E94F10F6BE57AE08FEF1C
:102DB00093E10E94B30E0E94BF0764E670E080E0DA
:102DC00090E00E94070380E49DE00E94D90A63EE30
:102DD0007BE0CE018C5A9F4F0E94331064E97CE067
:102DE000CE01865A9F4F0E94331063EF73E1CE01EC
:102DF000C0960E94081043E0BE01605D7F4FCE0187
:102E0000C6960E94111045E0BE016A5C7F4FCE015C
:102E1000CC960E941110BE01645C7F4FCE018C5A8B
:102E20009F4F0E941D0D10E0882371F167EE73E142
:102E3000CE0101960E94081043E0BE016F5F7F4FF4
:102E4000CE0184960E94111045E0BE016C5D7F4F5B
:102E5000CE018A960E941110BE01665D7F4FCE01A1
:102E6000865A9F4F0E941D0D11E0811101C010E094
:102E7000CE018A960E94980DCE0184960E94980DEC
:102E8000CE0101960E94980DCE01CC960E94980D1D
:102E9000CE01C6960E94980DCE01C0960E94980D54
:102EA000111144CE0AEB16E0BE016F5F7F4FC801DF
:102EB0000E94A308BE016F5F7F4FCE018A960E94D9
:102EC0003310BE01695E7F4FCE0184960E9433109D
:102ED000BE01665D7F4FCE018E5B9F4F0E94081042
:102EE00043E0BE016E5B7F4FCE01885B9F4F0E9427
:102EF000111045E0BE01685B7F4FCE01825B9F4FA2
:102F00000E94111063EF73E1CE01825B9F4F0E941C
:102F10001D0DF12C882371F1BE016C5D7F4FCE0138
:102F2000C0960E94081043E0BE01605D7F4FCE0155
:102F3000C6960E94111045E0BE016A5C7F4FCE012B
:102F4000CC960E94111067EE73E1CE01CC960E94E0
:102F50001D0DFF24F394811101C0F12CCE01CC96FC
:102F60000E94980DCE01C6960E94980DCE01C09683
:102F70000E94980DCE01825B9F4F0E94980DCE015A
:102F8000885B9F4F0E94980DCE018E5B9F4F0E94E1
:102F9000980DFF20C1F0CE0184960E94980DCE01BD
:102FA0008A960E94980D84CE8CE00E944F02019771
:102FB00009F0D1CE6BE57AE08FEF93E10E94B30E7A
:102FC0000E94BF07C8CE0D5D1F4FCE0184960E94A0
:102FD000980DCE018A960E94980D063080E1180760
:102FE00009F062CF0E94BF0761E080E00E94C7073E
:102FF00066EC7AE08FEC93E10E94FF0A62E080E0E9
:103000000E94C70769EF7CE08FEC93E10E94FF0A02
:1030100064EF71E080E090E00E94070364E07DE0EF
:10302000CE0101960E943310CE0101960E94141326
:10303000CE0101960E94980D0E94BF07CA94CD2828
:1030400081F50E94BF0760E080E00E94C70760E151
:103050007DE08FEC93E10E94FF0A68EE73E080E070
:1030600090E00E9407030E94BF0761E082E00E9497
:10307000C70760E27DE08FEC93E10E94FF0A62E007
:1030800082E00E94C70768E27DE08FEC93E10E9436
:10309000FF0A81E08093CC118093CB1186E090E011
:1030A0003DCECE01865A9F4F0E94980DCE018C5A7C
:1030B0009F4F0E94980DCC24C394D12C8CCCCF93DD
:1030C000DF9300D000D0CDB7DEB71092CE111092B2
:1030D000CD110E94BF0760E080E00E94C7076CE549
:1030E0007DE08FEC93E10E94FF0A6CE67DE0CE016B
:1030F00001960E943310CE0101960E941413CE0156
:1031000001960E94980D68EE73E080E090E00E94C6
:1031100007030E94BF0781E090E09093D011809355
:10312000CF111092CA111092C91126960FB6F894B9
:10313000DEBF0FBECDBFDF91CF910895AF92BF929A
:10314000CF92DF92EF92FF920F931F93CF93DF9373
:10315000CDB7DEB7C754D1090FB6F894DEBF0FBEA6
:10316000CDBF28969FAF8EAF289726961FAE1EAE76
:1031700026976BE57AE0CE01CC960E94331034E0BE
:10318000E32EF12C10E000E0BE016C5B7F4FC70125
:103190000E94C9080F5F1F4F26968EAD9FAD2697E0
:1031A000892B09F08DC3BE016F5F7F4F28968EADCE
:1031B0009FAD28970E94A308BE01695E7F4FCE0194
:1031C000CC960E94E90E0E943D0F8111C7C10E945A
:1031D000441022E0C22ED12C66E87CE0CE01C096DD
:1031E0000E94331062E97CE0CE018A960E9433107F
:1031F0006BE77DE0CE0184960E9433109E01205D36
:103200003F4FAE01465D5F4FBE016C5D7F4FCE010B
:10321000C6960E946911BE016A5C7F4F87EE93E1FA
:103220000E944D0DCE01C6960E94980DCE01849647
:103230000E94980DCE018A960E94980DCE01C096EC
:103240000E94980D67EE73E1CE0184960E940810EB
:1032500043E0BE016C5D7F4FCE018A960E94111043
:1032600045E0BE01665D7F4FCE01C0960E94111001
:10327000BE01645C7F4FCE01C0960E941D0DB82E2A
:10328000CE01C0960E94980DCE018A960E94980D9C
:10329000CE0184960E94980DBB2009F4FCC081E009
:1032A00090E026969FAF8EAF26970E94BF0760E002
:1032B00080E00E94C7076DE77DE08FEC93E10E94FC
:1032C000FF0A61E080E00E94C70768E87DE08FECBC
:1032D00093E10E94FF0A61E088E00E94C707B801FD
:1032E0008FEC93E10E94280A6CEB72E080E090E0A2
:1032F0000E9407030E94BF0760E082E00E94C707A8
:1033000061E97DE08FEC93E10E94FF0A61E082E0D9
:103310000E94C7076DE97DE08FEC93E10E94FF0AF0
:1033200062E082E00E94C7076AEA7DE08FEC93E1E9
:103330000E94FF0A63E082E00E94C70766EB7DE01F
:103340008FEC93E10E94FF0AC8010E94970588ABA9
:1033500081E389AB69E170E080E090E00E940703BF
:10336000BE01605D7F4F82EE91E10E94FF0A82EE16
:1033700091E10E942304029731F4CE01C6960E9487
:10338000F9030E9408056DEB7DE08CE193E10E945A
:10339000FF0A8EA90E94EC0A62ED7DE08CE193E1C8
:1033A0000E94FF0A8FA90E94EC0A6EA9CE018A969C
:1033B0000E94F20E61EB70E1CE018A960E94000D30
:1033C00010E0882399F06FA9CE0184960E94F20E36
:1033D00061EB70E1CE0184960E94000D11E0811135
:1033E00001C010E0CE0184960E94980DCE018A960D
:1033F0000E94980D112309F4ADCF85E090E09093E1
:10340000D0118093CF110E94BF0761E083E00E943A
:10341000C70767EE7DE08FEC93E10E94FF0A68E545
:1034200072E080E090E00E9407030E94BF0761EF16
:103430007DE0CE0184960E943310CE0184960E94D6
:103440001413CE0184960E94980DBE016A5B7F4FD3
:10345000C7010E94EC1264EF71E080E090E00E94EE
:103460000703CE01CC960E94980DC95BDF4F0FB6C3
:10347000F894DEBF0FBECDBFDF91CF911F910F91AA
:10348000FF90EF90DF90CF90BF90AF900895CC2445
:10349000C394D12CA1CE0E94BF0761E080E00E94BE
:1034A000C70766EC7AE08FEC93E10E94FF0A62E0C6
:1034B00080E00E94C70769EF7CE08FEC93E10E94F7
:1034C000FF0A6CE271E080E090E00E9407030E9436
:1034D000BF076DEF7DE0CE0184960E943310CE01D0
:1034E00084960E941413CE0184960E94980DCA946B
:1034F000CD2869F60E94BF0760E080E00E94C70700
:1035000060E17DE08FEC93E10E94FF0A68EE73E0DA
:1035100080E090E00E9407030E94BF0761E082E024
:103520000E94C70760E27DE08FEC93E10E94FF0AF2
:1035300062E082E00E94C70768E27DE08FEC93E1E1
:103540000E94FF0A81E08093CC111092CB1186E09B
:1035500090E09093D0118093CF1183CF0E94BF074A
:103560006BE57AE08FEF93E10E94B30E82E0C82E04
:10357000D12C61E080E00E94C70762E37DE08FEC20
:1035800093E10E94FF0A0E942D0E62E080E00E94FB
:10359000C7076FEF73E18FEC93E10E9458038DE052
:1035A0000E944F025C0181E0A816B10409F070C1CD
:1035B0006CE271E080E090E00E9407036BE57AE046
:1035C000CE0184960E943310BE01645C7F4FCE0111
:1035D0008A960E94081043E0BE01665D7F4FCE01CF
:1035E000C0960E94111045E0BE01605D7F4FCE0184
:1035F000C6960E941110BE016A5C7F4FCE01849670
:103600000E944D0DCE01C6960E94980DCE01C09627
:103610000E94980DCE018A960E94980D6BE07EE084
:103620008CE193E10E94FF0A8FEF93E10E94C60AAA
:1036300064E17EE08CE193E10E94FF0ACE01849672
:103640000E94C60ABE016C5D7F4F8FEF93E10E941E
:103650001D0D882309F4E9C02696BFAEAEAE2697AD
:103660000E94BF0760E080E00E94C7076DE77DE031
:103670008FEC93E10E94FF0A61E080E00E94C7079F
:1036800068E87DE08FEC93E10E94FF0A61E088E04A
:103690000E94C707B8018FEC93E10E94280A6CEBE7
:1036A00072E080E090E00E9407030E94BF0760E0A4
:1036B00082E00E94C70761E97DE08FEC93E10E9400
:1036C000FF0A61E082E00E94C7076DE97DE08FECB0
:1036D00093E10E94FF0A62E082E00E94C7076AEA63
:1036E0007DE08FEC93E10E94FF0A63E082E00E949C
:1036F000C70766EB7DE08FEC93E10E94FF0AC801EB
:103700000E94970523968FAF239781E324968FAF6E
:10371000249769E170E080E090E00E940703BE0119
:103720006E5B7F4F82EE91E10E94FF0A82EE91E193
:103730000E942304029731F4CE01C6960E94F90339
:103740000E9408056DEB7DE08CE193E10E94FF0A89
:103750008EA90E94EC0A62ED7DE08CE193E10E946B
:10376000FF0A8FA90E94EC0A6EA9CE01C0960E94A2
:10377000F20E61EB70E1CE01C0960E94000D10E0E8
:10378000882399F06FA9CE018A960E94F20E61EB10
:1037900070E1CE018A960E94000D11E0811101C0F6
:1037A00010E0CE018A960E94980DCE01C0960E942C
:1037B000980D112309F4ADCF85E090E09093D011DE
:1037C0008093CF110E94BF0761E083E00E94C7078A
:1037D00067EE7DE08FEC93E10E94FF0A68E572E0FE
:1037E00080E090E00E9407030E94BF0761EF7DE048
:1037F000CE018A960E943310CE018A960E9414133D
:10380000CE018A960E94980DBE016A5B7F4FC70168
:103810000E94EC1264EF71E080E090E00E940703E8
:10382000CE0184960E94980D1CCE81E0C81AD10862
:103830000E94BF0761E080E00E94C70766EC7AE063
:103840008FEC93E10E94FF0A62E080E00E94C707CC
:1038500069EF7CE08FEC93E10E94FF0A6CE271E07B
:1038600080E090E00E9407030E94BF076DEF7DE0BB
:10387000CE018A960E943310CE018A960E941413BC
:10388000CE018A960E94980DCE0184960E94980DD2
:103890008CE00E944F02019771F46CE271E080E0CD
:1038A00090E00E9407036BE57AE08FEF93E10E94BE
:1038B000B30E0E94BF07C114D10409F05ACE1ACE2C
:1038C00082E0E80EF11C0930110509F05DCC0E9480
:1038D000BF0760E080E00E94C7076BE17EE08FECED
:1038E00093E10E94FF0A61E080E00E94C7076AE25C
:1038F0007EE08FEC93E10E94FF0A68EE73E080E0C7
:1039000090E00E9407030E94BF0785E090E021CE6F
:10391000AF92BF92CF92DF92EF92FF920F931F93DD
:10392000CF93DF931F921F92CDB7DEB78B016B0150
:1039300023E2C20ED11C7B015C01A61AB70AC501A5
:103940008E0D9F1D9A838983F70161917F01CE01BE
:1039500001960E94D312EC14FD0489F7C8010F9060
:103960000F90DF91CF911F910F91FF90EF90DF901B
:10397000CF90BF90AF9008958F929F92AF92BF92D9
:10398000CF92DF92EF92FF920F931F93CF93DF932B
:10399000CDB7DEB7C558D1090FB6F894DEBF0FBE5C
:1039A000CDBF0E9439030091D5111091D6112091FD
:1039B000D7113091D8115B016C01A01AB10AC20A6B
:1039C000D30A96018501083E134021053105F0F028
:1039D0002091C9113091CA112F5F3F4F3093CA1106
:1039E0002093C9116093D5117093D6118093D7118C
:1039F0009093D81168E37EE08CE193E10E94FF0A86
:103A00008091C9119091CA110E94B30A8091C91185
:103A10009091CA118C32914061F46BE47EE08CE1AC
:103A200093E10E94FF0A86E090E09093D01180938A
:103A3000CF110091CF111091D0110115110509F08E
:103A40009BC00E9406090E94BF0760E080E00E94C0
:103A5000C70764E67EE08FEC93E10E94FF0A61E015
:103A600086E00E94C7076AE67EE08FEC93E10E9441
:103A7000FF0A62E080E00E94C70764E77EE08FEC07
:103A800093E10E94FF0A63E086E00E94C7076DE7AA
:103A90007EE08FEC93E10E94FF0A6CE271E080E02F
:103AA00090E00E9407030E94BF0760E080E00E9450
:103AB000C70767E87EE08FEC93E10E94FF0A61E0B0
:103AC00086E00E94C7076DE87EE08FEC93E10E94DC
:103AD000FF0A62E080E00E94C70767E97EE08FECA2
:103AE00093E10E94FF0A63E086E00E94C7076FE946
:103AF0007EE08FEC93E10E94FF0A6CE271E080E0CF
:103B000090E00E9407030E94BF0760E080E00E94EF
:103B1000C70769EA7EE08FEC93E10E94FF0A61E04B
:103B200086E00E94C70761EB7EE08FEC93E10E9484
:103B3000FF0A62E080E00E94C7076BEB7EE08FEC3B
:103B400093E10E94FF0A63E086E00E94C70763ECEE
:103B50007EE08FEC93E10E94FF0A6CE271E080E06E
:103B600090E00E94070381E090E09093D011809351
:103B7000CF110E94BF0705C10130110509F0FCC03B
:103B80000E9406098DE00E944F02892B09F484C02F
:103B900030E020E084E090E02F5F3F4F20173107B6
:103BA00071F4BE016F5F7F4F0E94C90889819A81BD
:103BB00061E3F62E892B39F450E3F52E04C002960A
:103BC0008631910549F7C8010E9497058093BC1181
:103BD000F092BD110E94EC0A6CEB71E182EE91E172
:103BE0000E94FF0A8AEB91E10E94F9036091BA11E9
:103BF000CE0101960E94F20E60E77FE0CE010196B1
:103C00000E94000DE82ECE0101960E94980DEE2034
:103C100091F08DEC9EE00E94D90A62EE7EE0CE012A
:103C200001960E943310CE0101960E941413CE011A
:103C300001960E94980D6091BB11CE0101960E94E1
:103C4000F20E60E77FE0CE0101960E94000DE82EA3
:103C5000CE0101960E94980DEE2091F08CEE9EE030
:103C60000E94D90A63E07FE0CE0101960E943310E2
:103C7000CE0101960E941413CE0101960E94980D68
:103C80000F5F1F4F0A30110509F082CF6CE271E01F
:103C900080E090E00E94070360E080E00E94C70798
:103CA0006EE07FE08FEC93E10E94FF0A61E080E02C
:103CB0000E94C70767E17FE08FEC93E10E94FF0A53
:103CC0000E943505182F8093BE116BE57AE0CE0176
:103CD00001960E9433101032C9F01133E1F482E0F2
:103CE00090E09093D0118093CF110E94BF0781E0A4
:103CF0008093D1111092D3111092D2118BE59AE0DA
:103D00008093BE111092CA111092C911CE01019672
:103D10000E94980D36C0123381F41092C611109291
:103D2000C51183E090E09093D0118093CF110E9451
:103D3000BF0781E08093D111E5CF0E94BF0761E00A
:103D400085E00E94C70763E27FE08FEC93E10E9469
:103D5000FF0A62E083E00E94C7076BE27FE08FEC1E
:103D600093E10E94FF0A6CE271E080E090E00E9423
:103D700007030E94BF07C6CF02301105B1F40E94AD
:103D8000DB13CB57DF4F0FB6F894DEBF0FBECDBFAE
:103D9000DF91CF911F910F91FF90EF90DF90CF9027
:103DA000BF90AF909F908F9008950330110509F058
:103DB00027C48091C5119091C611009709F03EC1AA
:103DC0000E943D0F811191C00E9444106DE57CE07E
:103DD000CE01895B9F4F0E94331065E17FE0CE01E9
:103DE00084960E94331066E37FE0CE0101960E9424
:103DF00033109E01295B3F4FAE014C5D5F4FBE010A
:103E00006F5F7F4FCE0186599F4F0E946911BE019F
:103E100066597F4F83EF93E10E944D0DCE01865985
:103E20009F4F0E94980DCE0101960E94980DCE01E1
:103E300084960E94980DCE01895B9F4F0E94980D39
:103E400063EF73E1CE0101960E940810CE01019646
:103E50000E94C110182FCE0101960E94980D1123C7
:103E600019F10E94BF0760E080E00E94C70768E385
:103E70007FE08FEC93E10E94FF0A61E080E00E9406
:103E8000C70762E47FE08FEC93E10E94FF0A6CE2D7
:103E900071E080E090E00E9407030E94BF0710924B
:103EA000C6111092C5116DCF63EF73E1CE0101967B
:103EB0000E940810CE0101960E94010B182FCE011E
:103EC00001960E94980D112309F45BCF64E670E01F
:103ED00080E090E00E9407030E94BF0781E090E02D
:103EE0009093C6118093C5114CCF0E94BF076BE51C
:103EF0007AE08FEF93E10E94B30E60E084E00E94CD
:103F0000C70761E57FE08FEC93E10E94FF0A61E063
:103F100080E00E94C7076CE77CE08FEC93E10E9491
:103F2000FF0A0E942D0E62E080E00E94C7076FEF3B
:103F300073E18FEC93E10E9458038DE00E944F02E1
:103F40008C01019709F06BC06FEF73E183EF93E190
:103F50000E94F10F63EF73E1CE0101960E940810F9
:103F6000CE0101960E94C110F82ECE0101960E944A
:103F7000980DFF2049F10E94BF0760E080E00E9499
:103F8000C70768E37FE08FEC93E10E94FF0A61E0DE
:103F900080E00E94C70762E47FE08FEC93E10E941B
:103FA000FF0A6CE271E080E090E00E9407030E944B
:103FB000BF071092C6111092C51164E670E080E050
:103FC00090E00E940703DDCE63EF73E1CE0101961E
:103FD0000E940810CE0101960E94010BF82ECE011E
:103FE00001960E94980DFF2009F487CF64E670E0E7
:103FF00080E090E00E9407036FEF73E183EF93E1AD
:104000000E94F10F6BE57AE08FEF93E10E94B30E0F
:104010000E94BF071093C6110093C511CECF8CE04C
:104020000E944F02019709F068CF6BE57AE08FEFAD
:1040300093E10E94B30E0E94BF075FCF81309105CC
:1040400009F0BBC00E943D0F811155C08BE59FE078
:104050000E94D90A0E94441068EA7AE0CE01895B86
:104060009F4F0E94331062E77FE0CE0184960E944A
:10407000331066E37FE0CE0101960E9433109E016B
:10408000295B3F4FAE014C5D5F4FBE016F5F7F4FBD
:10409000CE0186599F4F0E946911BE0166597F4F1C
:1040A0008DEE93E10E944D0DCE0186599F4F0E94E7
:1040B000980DCE0101960E94980DCE0184960E9423
:1040C000980DCE01895B9F4F0E94980D6DEE73E1B4
:1040D000CE0101960E940810CE0101960E94810B2C
:1040E000182FCE0101960E94980D112309F449CE94
:1040F00082E090E0F5CE0E94BF076BE57AE08FEF9B
:1041000093E10E94B30E61E080E00E94C70764E77C
:104110007FE08FEC93E10E94FF0A0E942D0E62E087
:1041200080E00E94C7076FEF73E18FEC93E10E947C
:1041300058038DE00E944F02019781F56FEF73E104
:10414000CE0101960E940810CE0101960E94810BBB
:10415000182FCE0101960E94980D1123A1F264E65A
:1041600070E080E090E00E9407038FEF93E10E94EF
:10417000C60A6FEF73E18DEE93E10E94F10F6BE5DC
:104180007AE08FEF93E10E94B30E0E94BF0782E0B6
:1041900090E09093C6118093C5110FCF8CE00E94E0
:1041A0004F02019709F0AFCF6BE57AE08FEF93E113
:1041B0000E94B30E0E94BF07A6CF8230910509F07E
:1041C000B5C00E943D0F811153C00E94441066E8A3
:1041D0007CE0CE01895B9F4F0E94331062E97CE056
:1041E000CE0184960E94331066E37FE0CE010196F3
:1041F0000E9433109E01295B3F4FAE014C5D5F4F23
:10420000BE016F5F7F4FCE0186599F4F0E9469119B
:10421000BE0166597F4F87EE93E10E944D0DCE019E
:1042200086599F4F0E94980DCE0101960E94980DCD
:10423000CE0184960E94980DCE01895B9F4F0E940B
:10424000980D67EE73E1CE0101960E940810CE0131
:1042500001960E94EF0BF82ECE0101960E94980D58
:10426000FF2009F48ECD1093C6110093C51189CD9E
:104270000E94BF076BE57AE08FEF93E10E94B30ED7
:1042800061E080E00E94C70762E37DE08FEC93E18C
:104290000E94FF0A0E942D0E62E080E00E94C70784
:1042A0006FEF73E18FEC93E10E9458038DE00E9461
:1042B0004F02019761F56FEF73E1CE0101960E9405
:1042C0000810CE0101960E94EF0B182FCE01019627
:1042D0000E94980D1123A1F264E670E080E090E066
:1042E0000E9407036FEF73E187EE93E10E94F10FE5
:1042F0006BE57AE08FEF93E10E94B30E8FEF93E1CD
:104300000E94C60A0E94BF0783E090E042CF8CE083
:104310000E944F02019709F0B3CF6BE57AE08FEF6F
:1043200093E10E94B30E0E94BF07AACF039709F042
:1043300028CD83EF93E10E94C60A8DEE93E10E949F
:10434000C60A87EE93E10E94C60A6BE57AE0CE01C9
:1043500086599F4F0E9433106BE57AE0CE01805959
:104360009F4F0E9433106BE57AE0CE018A589F4F31
:104370000E94331063EF73E1CE0101960E94081092
:1043800043E0BE016F5F7F4FCE0184960E94111003
:1043900045E0BE016C5D7F4FCE01895B9F4F0E945F
:1043A0001110BE01695B7F4FCE0186599F4F0E945D
:1043B0004D0DCE01895B9F4F0E94980DCE018496D2
:1043C0000E94980DCE0101960E94980D6DEE73E14A
:1043D000CE0101960E94081043E0BE016F5F7F4F3F
:1043E000CE0184960E94111045E0BE016C5D7F4FA6
:1043F000CE01895B9F4F0E941110BE01695B7F4F08
:10440000CE0180599F4F0E944D0DCE01895B9F4F79
:104410000E94980DCE0184960E94980DCE010196BF
:104420000E94980D67EE73E1CE0101960E9408107C
:1044300043E0BE016F5F7F4FCE0184960E94111052
:1044400045E0BE016C5D7F4FCE01895B9F4F0E94AE
:104450001110BE01695B7F4FCE018A589F4F0E94A9
:104460004D0DCE01895B9F4F0E94980DCE01849621
:104470000E94980DCE0101960E94980DCE0186599A
:104480009F4F0E94C60ACE0180599F4F0E94C60AC4
:10449000CE018A589F4F0E94C60A81E090E0909317
:1044A000D0118093CF110E94BF074DE050E0BE01B4
:1044B000695B7F4FCE0186599F4F0E94DD0C67E4F8
:1044C00070E06C0F7D1F635F7F4F49E050E0CE01CD
:1044D00080599F4F0E94DD0C67E470E06C0F7D1FD8
:1044E0006A5E7F4F4DE050E0CE018A589F4F0E9498
:1044F000DD0C83E2FE01E95BFF4FDE019496019043
:104500000D928A95E1F7BE016C5D7F4F85EC93E1DA
:104510000E94E90EBE01665C7F4F8FEB93E10E9423
:10452000E90EBE016F5C7F4F89EB93E10E94E90EBB
:10453000BE016F5F7F4F8AEB96E00E94A308F12CCB
:10454000E12C4AEBC42E46E0D42E0091CD131091FD
:10455000CE13E016F106E4F16FE77FE08FEC93E114
:104560000E94FF0A68EC70E080E090E00E94070380
:104570000E94BF0717FF02C010E000E043E2409F27
:10458000C001419F900D1124BE016C5D7F4F865488
:10459000994F0E94881C8091CD139091CE13019663
:1045A0009093CE138093CD136DEC73E190E080E097
:1045B0000E94EC12CE018A589F4F0E94980DCE01A6
:1045C00080599F4F0E94980DCE0186599F4FA0CBD6
:1045D000BE016F5F7F4FC6010E94A308BE016C5DE4
:1045E0007F4FCE0101960E949935892B11F40C94CE
:1045F000D12E43E2C40ED11C8FEFE81AF80AA5CFE2
:104600000430110509F0C7C560E080E00E94C707CB
:1046100060E97FE08FEC93E10E94FF0A61E080E0B7
:104620000E94C7076CE97FE08FEC93E10E94FF0ACC
:1046300062E080E00E94C70767EA7FE08FEC93E1C9
:104640000E94FF0A0E9435058093BE11803209F452
:1046500098CB813309F0ADC20E94BF076BE57AE0C9
:10466000CE0184589F4F0E9433106BE57AE0CE0153
:104670008A589F4F0E9433100091400210914102CE
:104680000F3F2FE0120708F07AC2BE016F5F7F4F25
:10469000C8010E947D08BE016D5F7F4FCE018A5820
:1046A0009F4F0E94E90EBE016A587F4FCE01865986
:1046B0009F4F0E94081043E0BE0166597F4FCE0114
:1046C000895B9F4F0E94111045E0BE01695B7F4FDF
:1046D000CE0184960E941110BE016C5D7F4FCE0109
:1046E00084589F4F0E944D0DCE0184960E94980DD4
:1046F000CE01895B9F4F0E94980DCE0186599F4F36
:104700000E94980DCE0184589F4F0E94C60A70E007
:1047100060E0CE0184589F4F0E94000D811147C078
:1047200060E00E94C707BE0164587F4FCE018496A7
:104730000E94081069817A81CE0186599F4F0E949C
:10474000BD0EBE0166597F4FCE01895B9F4F0E940F
:104750000810CE01895B9F4F0E94F40DBE016C5D75
:104760007F4F0E94060EBC01CE0180599F4F0E94D0
:104770000810CE01895B9F4F0E94980DCE0186598B
:104780009F4F0E94980DCE0184960E94980DBE0105
:1047900060597F4F8FEC93E10E94580389819A8181
:1047A0000E94B30ACE0180599F4F0E94980DBE010E
:1047B0006F5F7F4FC80141960E947D08BE016D5F0B
:1047C0007F4FCE018A589F4F0E94E90EBE016A5862
:1047D0007F4FCE0186599F4F0E94081043E0BE01D3
:1047E00066597F4FCE01895B9F4F0E94111045E0B3
:1047F000BE01695B7F4FCE0184960E941110BE01FD
:104800006C5D7F4FCE0184589F4F0E944D0DCE01AD
:1048100084960E94980DCE01895B9F4F0E94980D4F
:10482000CE0186599F4F0E94980DCE0184589F4F0C
:104830000E94C60A70E060E0CE0184589F4F0E943B
:10484000000D811147C061E00E94C707BE01645896
:104850007F4FCE0184960E94081069817A81CE0133
:1048600086599F4F0E94BD0EBE0166597F4FCE01F3
:10487000895B9F4F0E940810CE01895B9F4F0E9469
:10488000F40DBE016C5D7F4F0E94060EBC01CE018F
:1048900080599F4F0E940810CE01895B9F4F0E9454
:1048A000980DCE0186599F4F0E94980DCE01849697
:1048B0000E94980DBE0160597F4F8FEC93E10E94DA
:1048C000580389819A810E94B30ACE0180599F4F73
:1048D0000E94980DBE016F5F7F4FC80182960E94B3
:1048E0007D08BE016D5F7F4FCE018A589F4F0E94A9
:1048F000E90EBE016A587F4FCE0186599F4F0E9434
:10490000081043E0BE0166597F4FCE01895B9F4F7F
:104910000E94111045E0BE01695B7F4FCE01849675
:104920000E941110BE016C5D7F4FCE0184589F4FD5
:104930000E944D0DCE0184960E94980DCE01895B98
:104940009F4F0E94980DCE0186599F4F0E94980D4F
:10495000CE0184589F4F0E94C60A70E060E0CE01ED
:1049600084589F4F0E94000D811147C062E00E9451
:10497000C707BE0164587F4FCE0184960E9408107D
:1049800069817A81CE0186599F4F0E94BD0EBE017A
:1049900066597F4FCE01895B9F4F0E940810CE0160
:1049A000895B9F4F0E94F40DBE016C5D7F4F0E949A
:1049B000060EBC01CE0180599F4F0E940810CE0107
:1049C000895B9F4F0E94980DCE0186599F4F0E9490
:1049D000980DCE0184960E94980DBE0160597F4FBC
:1049E0008FEC93E10E94580389819A810E94B30A57
:1049F000CE0180599F4F0E94980DBE016F5F7F4F7F
:104A0000C801C3960E947D08BE016D5F7F4FCE0135
:104A10008A589F4F0E94E90EBE016A587F4FCE010F
:104A200086599F4F0E94081043E0BE0166597F4F90
:104A3000CE01895B9F4F0E94111045E0BE01695B6A
:104A40007F4FCE0184960E941110BE016C5D7F4F96
:104A5000CE0184589F4F0E944D0DCE0184960E9436
:104A6000980DCE01895B9F4F0E94980DCE0186590B
:104A70009F4F0E94980DCE0184589F4F0E94C60AF6
:104A800070E060E0CE0184589F4F0E94000D8111BC
:104A900047C063E00E94C707BE0164587F4FCE0144
:104AA00084960E94081069817A81CE0186599F4FB1
:104AB0000E94BD0EBE0166597F4FCE01895B9F4F9C
:104AC0000E940810CE01895B9F4F0E94F40DBE0129
:104AD0006C5D7F4F0E94060EBC01CE0180599F4F36
:104AE0000E940810CE01895B9F4F0E94980DCE0155
:104AF00086599F4F0E94980DCE0184960E94980D72
:104B0000BE0160597F4F8FEC93E10E945803898169
:104B10009A810E94B30ACE0180599F4F0E94980D3E
:104B20008DE00E944F02019799F40E94BF0768EB45
:104B30007FE08FEC93E10E94FF0A6CE271E080E07D
:104B400090E00E9407030E94BF070C5B1F4F98CDA7
:104B50008CE00E944F02019719F70E94BF0762E0A4
:104B600082E00E94C70764EC7FE08FEC93E10E9433
:104B7000FF0A68EC70E080E090E00E940703CE013D
:104B80008A589F4F0E94980DCE0184589F4F0E94D3
:104B9000980D84E090E09093D0118093CF110E9403
:104BA000BF0781E08093D1118BE59AE08093BE111D
:104BB000E8C8823309F0A4C21092C6111092C51140
:104BC00083E090E09093D0118093CF110E94BF07B3
:104BD0000E9444100E94BF0763E080E00E94C70764
:104BE0006091CD137091CE13CE0184589F4F0E94D7
:104BF000BD0E60ED7FE0CE0101960E943310BE0134
:104C000064587F4FCE0101960E94060EBC018FECC6
:104C100093E10E945803CE0101960E94980DBE01B7
:104C200064587F4FCE0180599F4F0E940810E0903A
:104C30004002F0904102D12CC12C4FEFE4164FE01E
:104C4000F406E8F5BE016F5F7F4FC7010E947D0843
:104C5000BE016D5F7F4FCE0186599F4F0E9433107A
:104C600043E0BE0166597F4FCE01895B9F4F0E9492
:104C7000111045E0BE01695B7F4FCE0184960E9412
:104C8000111062EE7EE0CE0184960E94000DB82ED7
:104C9000CE0184960E94980DCE01895B9F4F0E94A1
:104CA000980DCE0186599F4F0E94980DBB2019F098
:104CB0008FEFC81AD80A21E1E20EF11CBECF62E0E4
:104CC00080E00E94C707B601CE018A589F4F0E941C
:104CD000BD0E6FED7FE0CE0184960E943310BE01C1
:104CE0006A587F4FCE0184960E94060EBC018FEC5D
:104CF00093E10E945803CE0184960E94980DC090C3
:104D00004002D0904102F12CE12C4FEFC4164FE04D
:104D1000D40608F0D6C0BE016F5F7F4FC6010E9467
:104D20007D08BE016D5F7F4FCE0186599F4F0E9467
:104D3000331043E0BE0166597F4FCE01895B9F4F20
:104D40000E94111045E0BE01695B7F4FCE01849641
:104D50000E94111064E07DE0CE0184960E94000D57
:104D6000B82ECE0184960E94980DCE01895B9F4F8C
:104D70000E94980DCE0186599F4F0E94980DBB202E
:104D800019F08FEFE81AF80ABE016D5F7F4FCE0170
:104D900086599F4F0E94331043E0BE0166597F4FF2
:104DA000CE01895B9F4F0E94111045E0BE01695BF7
:104DB0007F4FCE0184960E9411106DEF7DE0CE01F1
:104DC00084960E94000DB82ECE0184960E94980D04
:104DD000CE01895B9F4F0E94980DCE0186599F4F4F
:104DE0000E94980DBB2019F02FEFE21AF20ABE01C3
:104DF0006D5F7F4FCE0186599F4F0E94331043E075
:104E0000BE0166597F4FCE01895B9F4F0E941110F2
:104E100045E0BE01695B7F4FCE0184960E94111070
:104E20006BEE7FE0CE0184960E94000DB82ECE017D
:104E300084960E94980DCE01895B9F4F0E94980D29
:104E4000CE0186599F4F0E94980DBB2019F04FEF5D
:104E5000E41AF40ABE016D5F7F4FCE0186599F4F61
:104E60000E94331043E0BE0166597F4FCE01895B3B
:104E70009F4F0E94111045E0BE01695B7F4FCE013C
:104E800084960E94111063E07FE0CE0184960E9418
:104E9000000DB82ECE0184960E94980DCE01895B3C
:104EA0009F4F0E94980DCE0186599F4F0E94980DEA
:104EB000BB2019F08FEFE81AF80A21E1C20ED11CCD
:104EC00024CF88EF9FE00E94D90AC7010E94B30A4D
:104ED00061E080E00E94C707B701CE01895B9F4F68
:104EE0000E94BD0E69E070E1CE0184960E943310ED
:104EF000BE01695B7F4FCE0184960E94060EBC0105
:104F00008FEC93E10E945803CE0184960E94980D85
:104F1000F12CE12CBE0166597F4FC8010E94C908DF
:104F2000AC968EAD9FADAC97892B19F04FEFE41A7C
:104F3000F40A0E5F1F4F0631110561F7C7010E9489
:104F4000B30A60E080E00E94C707B701CE018496F3
:104F50000E94BD0E68E170E1CE0101960E943310FF
:104F6000BE016C5D7F4FCE0101960E94060EBC0112
:104F70008FEC93E10E945803CE0101960E94980D98
:104F800068E270E18FE792E10E94FF0A6AE770E051
:104F900080E090E00E9407036AE270E18FE792E10F
:104FA0000E94FF0A62ED72E080E090E00E94070339
:104FB000BE016C5D7F4F8FE792E10E94580362ED66
:104FC00072E080E090E00E9407036CE270E18FE7FE
:104FD00092E10E94FF0A62ED72E080E090E00E94A0
:104FE0000703BE01695B7F4F8FE792E10E94580380
:104FF00062ED72E080E090E00E9407036EE270E1F3
:105000008FE792E10E94FF0A62ED72E080E090E09B
:105010000E940703BE016A587F4F8FE792E10E940A
:10502000580362ED72E080E090E00E94070360E3C5
:1050300070E18FE792E10E94FF0A62ED72E080E08A
:1050400090E00E940703BE0160597F4F8FE792E115
:105050000E94580362ED72E080E090E00E94070336
:10506000CE0184960E94980DCE01895B9F4F0E94CD
:10507000980DCE018A589F4F0E94980DCE018059FD
:105080009F4F0E94980D8CE00E944F020197D9F724
:105090006BE57AE08FEF93E10E94B30E0E94BF07A9
:1050A00062E082E00E94C70764EC7FE08FEC93E14E
:1050B0000E94FF0A68EC70E080E090E00E94070325
:1050C0000E94BF076DED70E18FE792E10E94FF0A39
:1050D000CE0184589F4F0E94980D64EF71E080E0EC
:1050E00090E00E94070384E090E09093D0118093B9
:1050F000CF110E94BF0781E08093D1110C94C11E93
:10510000833339F51092D3111092D21181E090E0DF
:105110009093D0118093CF110E94BF0762E370E19A
:105120008FEC93E10E94FF0A6CE67DE0CE010196D0
:105130000E943310CE0101960E941413CE010196F5
:105140000E94980D6CE271E080E090E00E940703FD
:10515000D0CF0E94BF0761E085E00E94C70763E2ED
:105160007FE08FEC93E10E94FF0A62E083E00E94FF
:10517000C7076BE27FE08FEC93E10E94FF0A6CE2CD
:1051800071E080E090E00E9407031093D01100933B
:10519000CF110C94B91D0530110509F08CC50E9482
:1051A000060960E080E00E94C70762E470E18FECCE
:1051B00093E10E94FF0A61E080E00E94C70763E577
:1051C00070E18FEC93E10E94FF0A62E080E00E94B0
:1051D000C70764E670E18FEC93E10E94FF0A63E089
:1051E00080E00E94C70761E770E18FEC93E10E94C5
:1051F000FF0A0E943505182F8093BE116BE57AE0F7
:10520000CE0184589F4F0E9433101032D9F01133D1
:10521000F1F482E090E09093D0118093CF110E943E
:10522000BF0781E08093D1111092D3111092D21157
:105230008BE59AE08093BE118091CD119091CE11B3
:105240000E949E18CE0184589F4F0C94881E1233E2
:1052500009F0DAC31092C6111092C51181E0809353
:10526000D1118091CD119091CE110E948D0C68EEDC
:1052700073E080E090E00E9407031092D1110E9439
:10528000060968EE73E080E090E00E9407030E9448
:10529000BF076BE57AE08FEF93E10E94B30E61E008
:1052A00080E00E94C7076EE770E18FEC93E10E94F7
:1052B000FF0A0E942D0E62E080E00E94C7076FEF98
:1052C00073E18FEC93E10E9458038DE00E944F023E
:1052D000019709F08AC38091FF1390910014812CEB
:1052E000912C5401009719F00E94D9324B016CE2C5
:1052F00071E080E090E00E940703C090CD11D09053
:10530000CE116BE57AE0CE018A589F4F0E94331090
:105310006BE57AE08FEF93E10E94B30EC6010E9425
:10532000DD08882309F436C310E000E034E0E32E02
:10533000F12CBE016C577F4FC7010E94C9080F5F57
:105340001F4FCC57DF4F88819981C458D040C81671
:10535000D90609F0F9C28016910609F0F5C2BE011E
:105360006F5F7F4FC6010E94A308BE01695E7F4F39
:10537000CE018A589F4F0E94E90E0E943D0F811175
:1053800080C10E94441022E0C22ED12C66E87CE04D
:10539000CE01895B9F4F0E94331062E97CE0CE0111
:1053A00086599F4F0E9433106BE77DE0CE018059F4
:1053B0009F4F0E9433109E01295B3F4FAE0146591B
:1053C0005F4FBE0160597F4FCE0184960E946911E4
:1053D000BE016C5D7F4F87EE93E10E944D0DCE01C3
:1053E00084960E94980DCE0180599F4F0E94980D7F
:1053F000CE0186599F4F0E94980DCE01895B9F4F29
:105400000E94980D67EE73E1CE0186599F4F0E946E
:10541000081043E0BE0166597F4FCE01895B9F4F64
:105420000E94111045E0BE01695B7F4FCE0184965A
:105430000E941110BE016A587F4FCE0184960E94CF
:105440001D0DB82ECE0184960E94980DCE01895B69
:105450009F4F0E94980DCE0186599F4F0E94980D34
:10546000BB2009F4ABC081E090E0CC57DF4F9983BB
:105470008883C458D0400E94BF0760E080E00E944B
:10548000C7076DE870E18FEC93E10E94FF0A61E0CD
:1054900080E00E94C70767E970E18FEC93E10E940A
:1054A000FF0A61E088E00E94C707B8018FEC93E132
:1054B0000E94280AC8010E949705E1968FAFE197E4
:1054C00080E3E2968FAFE297BE0160597F4F82EE94
:1054D00091E10E94FF0ACE0186599F4F0E94F90375
:1054E00060EA70E18CE193E10E94FF0AAB968FAD18
:1054F000AB970E94EC0A62ED7DE08CE193E10E94A3
:10550000FF0AAC968FADAC970E94EC0AAB966FADDC
:10551000AB97CE0184960E94F20E61EB70E1CE0152
:1055200084960E94000D10E08823C1F0AC966FAD08
:10553000AC97CE01895B9F4F0E94F20E61EB70E148
:10554000CE01895B9F4F0E94000D11E0811101C0C7
:1055500010E0CE01895B9F4F0E94980DCE0184968A
:105560000E94980D112309F4AFCF85E090E090934D
:10557000D0118093CF110E94BF0763EB70E1CE0181
:1055800084960E943310CE0184960E941413CE019B
:1055900084960E94980D1DA21CA2BE016C5D7F4FD7
:1055A000C7010E94EC1264EF71E080E090E00E947D
:1055B00007037CC1CC24C394D12CE8CE0E94BF0742
:1055C00061E080E00E94C70766EC7AE08FEC93E12F
:1055D0000E94FF0A62E080E00E94C70769EF7CE05A
:1055E0008FEC93E10E94FF0A6CE271E080E090E0B2
:1055F0000E9407030E94BF076BEE7FE0CE018496F6
:105600000E943310CE0184960E941413CE0184961A
:105610000E94980DCA94CD2869F60E94BF0760E0E9
:1056200080E00E94C7076EEB70E18FEC93E10E946F
:10563000FF0A68EE73E080E090E00E9407030E949A
:10564000BF0761E082E00E94C70760E27DE08FEC67
:1056500093E10E94FF0A62E082E00E94C70768E2CD
:105660007DE08FEC93E10E94FF0A81E08093CC11F2
:105670001092CB1186E090E09093D0118093CF11DF
:1056800015C10E94BF076BE57AE08FEF93E10E949E
:10569000B30E82E0C82ED12C61E080E00E94C707E3
:1056A00062E37DE08FEC93E10E94FF0A0E942D0EE1
:1056B00062E080E00E94C7076FEF73E18FEC93E137
:1056C0000E9458038DE00E944F025C01019709F08F
:1056D00029C16BE57AE0CE0180599F4F0E943310BB
:1056E000BE016A587F4FCE0186599F4F0E94081015
:1056F00043E0BE0166597F4FCE01895B9F4F0E94F8
:10570000111045E0BE01695B7F4FCE0184960E9477
:105710001110BE016C5D7F4FCE0180599F4F0E94DA
:105720004D0DCE0184960E94980DCE01895B9F4F4E
:105730000E94980DCE0186599F4F0E94980DBE0180
:1057400060597F4F8FEF93E10E941D0D882309F46C
:10575000B5C0CC57DF4FB982A882C458D0400E9450
:10576000BF0760E080E00E94C7076DE870E18FEC42
:1057700093E10E94FF0A61E080E00E94C70767E9A9
:1057800070E18FEC93E10E94FF0A61E088E00E94E3
:10579000C707B8018FEC93E10E94280AC8010E9454
:1057A0009705CE57DF4F8883C258D04080E3CD574E
:1057B000DF4F8883C358D040BE016E577F4F82EEC3
:1057C00091E10E94FF0ACE0186599F4F0E94F90382
:1057D00060EA70E18CE193E10E94FF0AAB968FAD25
:1057E000AB970E94EC0A62ED7DE08CE193E10E94B0
:1057F000FF0AAC968FADAC970E94EC0AAB966FADEA
:10580000AB97CE0184960E94F20E61EB70E1CE015F
:1058100084960E94000D10E08823C1F0AC966FAD15
:10582000AC97CE01895B9F4F0E94F20E61EB70E155
:10583000CE01895B9F4F0E94000D11E0811101C0D4
:1058400010E0CE01895B9F4F0E94980DCE01849697
:105850000E94980D112309F4AFCF85E090E090935A
:10586000D0118093CF110E94BF0763EB70E1CE018E
:1058700084960E943310CE0184960E941413CE01A8
:1058800084960E94980D1DA21CA2BE016C5D7F4FE4
:10589000C7010E94EC1264EF71E080E090E00E948A
:1058A0000703CE0180599F4F0E94980DCE018A5860
:1058B0009F4F0E94980D0E940609C4CC41E0C41A73
:1058C000D1080E94BF0761E080E00E94C70766EC34
:1058D0007AE08FEC93E10E94FF0A62E080E00E9490
:1058E000C70769EF7CE08FEC93E10E94FF0A6CE24E
:1058F00071E080E090E00E9407030E94BF076BEE1A
:105900007FE0CE0184960E943310CE0184960E94DF
:105910001413CE0184960E94980DCE0180599F4F9A
:105920000E94980D8CE00E944F02019741F46BE5B4
:105930007AE08FEF93E10E94B30E0E94BF07C1147B
:10594000D10409F0A9CE69CE82E0E80EF11C26E16F
:10595000E216F10409F0EDCC0E94BF07C6010E94D7
:105960008D0C62E080E00E94C7076AEE70E18FEC68
:1059700093E10E94FF0A63E080E00E94C70769EF9D
:1059800070E18FEC93E10E94FF0A68EE73E080E023
:1059900090E00DCE0E94BF0760E080E00E94C70744
:1059A00060E17DE08FEC93E10E94FF0A61E080E01E
:1059B0000E94C7076EEC70E18FEC93E10E94FF0A32
:1059C00062E080E00E94C7076FED70E18FEC93E129
:1059D0000E94FF0A68EE73E080E090E00E940703F7
:1059E0000E94BF0785E090E047CE8CE00E944F0206
:1059F000019709F054CC6BE57AE08FEF93E10E94B8
:105A0000B30E0E94BF074BCC133319F40E945F18EA
:105A100019CC143309F030C188E091E10E94D90A11
:105A2000E090CD11F090CE110AEB16E0063040E187
:105A3000140709F4BEC0BE016C5D7F4FC8010E940F
:105A4000A308BE016F5F7F4FC7010E94A308BE017C
:105A50006F5F7F4FCE0186599F4F0E943310BE016A
:105A6000695E7F4FCE01895B9F4F0E943310BE015C
:105A70006C5D7F4F85EC93E10E94E90EBE01665C90
:105A80007F4F8FEB93E10E94E90EBE0166597F4F75
:105A900085EC93E10E941D0D882309F47DC0BE01B1
:105AA000695B7F4F8FEB93E10E941D0D882309F402
:105AB00073C069E171E18CE193E10E94FF0ACE01BC
:105AC000895B9F4F0E94980DCE0186599F4F0E947F
:105AD000980DFF24F3948091CD119091CE110E94E6
