:100000000C9422010C9453010C9453010C94530151
:100010000C9453010C9453010C9453010C94530110
:100020000C9453010C9453010C9453010C94530100
:100030000C9453010C9453010C9453010C945301F0
:100040000C9453010C9453010C9453010C945301E0
:100050000C9453010C9453010C9453010C947503AC
:100060000C9453010C9453010C9453010C945301C0
:100070000C9453010C9453010C9453010C945301B0
:100080000C9453010C9453010C9453010C945301A0
:100090000C9453010C9453010C9453010C94530190
:1000A0000C9453010C9453010C9453010C94530180
:1000B0000C9453010C9453010C9453010C94530170
:1000C0000C9453010C9453010C9453010C94530160
:1000D0000C9453010C9453010C9453010C94530150
:1000E0000C9453010C9499040C94BB010C94A4013E
:1000F0000C94D0010C94F0010C94F6010C942E0297
:100100000C94CA010C94EC010C94E8010C94E201EB
:100110000C94C3010C9400020C946F030C94DA014C
:100120000C94D4010C942D020C94C7010C94A901D9
:100130000C94FA010C94BF010C94DE0100000A0B30
:1001400002090C0D0E080703040100000000000066
:10015000000000000000000000000000000000009F
:10016000000000000000000012111000000000005C
:10017000000000000000000000000000000000007F
:10018000000000002200250028002B002E00310076
:10019000340002010000050108010B0100002100EC
:1001A000240027002A002D00300033000101000048
:1001B000040107010A0105050505070508080808E7
:1001C000020202020A0A08080404040401010101EF
:1001D00001010101030303030303030304070707EA
:1001E0000C0C0C0C0C0C0C0C02020202060606068F
:1001F000060606060B0B0B0B0B0B0B0B010210205C
:10020000200808102040102040800201020108044C
:1002100002010102040810204080804020100804E0
:100220000201800402018040201008040201080439
:10023000020101020408102040800102040810207D
:100240004080990411241FBECFEFD1E2DEBFCDBFA5
:1002500000E00CBF12E0A0E0B2E0E6ECF9E000E064
:100260000BBF02C007900D92AA31B107D9F722E067
:10027000AAE1B2E001C01D92AB33B207E1F711E091
:10028000C2E2D1E000E006C021970109802FFE0103
:100290000E94D904C132D10780E00807A9F70E9463
:1002A000BF030C94E1040C94000090E0FC01E450C6
:1002B000FE4F24918A549E4FFC018491882399F02B
:1002C00090E0880F991FFC01E456FE4FA591B49170
:1002D000FC01EE57FE4F859194918FB7F894EC9105
:1002E000E22BEC938FBF0895282F30E0F901E45CF6
:1002F000FE4F9491F901E450FE4F44912A543E4F31
:10030000F9012491222309F435C0992311F1915068
:100310009231F8F4E92FF0E08827EE56FE4F8F4F28
:100320000C94D904C301C701A401BB01BF01A901F9
:10033000CA01D001D401DA01DE01E201E801EC01D9
:10034000A901F001F601FA01809180008F77809376
:100350008000E22FF0E0EE0FFF1FEE57FE4FA59159
:10036000B4918FB7F894EC91611148C040954E2339
:100370004C938FBF0895809180008F7DE8CF80914E
:100380008000877FE4CF84B58F7784BDE2CF84B5CA
:100390008F7DFBCF8091B0008F778093B000D9CF55
:1003A0008091B0008F7DF9CF809190008F778093FE
:1003B0009000CFCF809190008F7DF9CF80919000F9
:1003C000877FF5CF8091A0008F778093A000C1CF69
:1003D0008091A0008F7DF9CF8091A000877FF5CF1D
:1003E000809120018F7780932001B3CF80912001ED
:1003F0008F7DF9CF80912001877FF5CF4E2BB8CF2D
:10040000AF92BF92CF92DF92EF92FF920F931F9322
:10041000CF93DF936C017B018B01040F151FEB0160
:100420005E01AE18BF08C017D10759F06991D60117
:10043000ED91FC910190F081E02DC6011995892B79
:1004400079F7C501DF91CF911F910F91FF90EF9048
:10045000DF90CF90BF90AF900895089590E080E036
:100460000895CF93DF93EC0160E08E810E947401C8
:1004700061E08E810E94740160E08E810E947401AF
:100480008BE891E00197F1F7DF91CF910895CF923A
:10049000DF92EF92FF920F931F93CF93DF936C0144
:1004A0007C0187E0E80EF11CD0E0C0E0062F10E0F0
:1004B000B8010C2E02C0759567950A94E2F7617039
:1004C000F70181917F010E9474012196C430D1050A
:1004D00079F7C601DF91CF911F910F91FF90EF90B7
:1004E000DF90CF900C943102CF92DF92EF92FF9287
:1004F0000F931F93CF93DF93EC01F62E642F8C8123
:100500000E9474018D818F3F19F060E00E94740198
:100510000F2D10E08F8584FF25C06E0187E0C80E87
:10052000D11CF12CE12CB8010E2C02C075956795F9
:100530000A94E2F76170F60181916F010E947401E3
:10054000FFEFEF1AFF0A88E0E816F10461F7CE0129
:10055000DF91CF911F910F91FF90EF90DF90CF909F
:100560000C943102B80184E0759567958A95E1F79E
:10057000CE010E9447026F2DCE01DF91CF911F91D6
:100580000F91FF90EF90DF90CF900C94470240E0E6
:10059000682F83E292E00C947402CF93DF93823051
:1005A00029F490913202986090933202809336023F
:1005B0001092370280E48093380280E18093390200
:1005C00080E580933A02809127020E945501809134
:1005D00028028F3F11F00E945501809129020E944C
:1005E0005501C3E2D2E09E01235232408091320293
:1005F00084FD0AC084E090E02196281739073CF476
:100600008E810E945501EFCF88E090E0F5CF8BE31B
:100610009DE00197F1F760E0809127020E9474014C
:1006200060E0809129020E947401809128028F3F2E
:1006300019F060E00E9474018091320284FD39C09B
:1006400063E083E292E00E944702CBE4D6E4CE016D
:100650000197F1F763E083E292E00E94470221975D
:10066000F1F763E083E292E00E94470283E592E0C3
:100670000197F1F762E083E292E00E9447028091E5
:10068000320280620E94C70284E0809333028CE0D1
:100690000E94C70281E00E94C7028BE39FE101979D
:1006A000F1F782E08093340286E0DF91CF910C94E1
:1006B000C70280620E94C7028BE496E40197F1F7BB
:1006C0008091320280620E94C70283E592E0019726
:1006D000F1F78091320280620E94C702D0CF41E0E0
:1006E0000E94740281E090E008951F920F920FB66D
:1006F0000F9211242F933F938F939F93AF93BF93A8
:1007000080911F0290912002A0912102B0912202BB
:1007100030911E0223E0230F2D3758F50196A11DBD
:10072000B11D20931E0280931F0290932002A0937C
:100730002102B093220280911A0290911B02A09193
:100740001C02B0911D020196A11DB11D80931A02D9
:1007500090931B02A0931C02B0931D02BF91AF9116
:100760009F918F913F912F910F900FBE0F901F90EF
:10077000189526E8230F0296A11DB11DD2CFCF9365
:10078000DF93CDB7DEB7A1970FB6F894DEBF0FBEEB
:10079000CDBF789484B5826084BD84B5816084BD0A
:1007A00085B5826085BD85B5816085BD80916E000F
:1007B000816080936E001092810080918100826040
:1007C000809381008091810081608093810080917D
:1007D00080008160809380008091B100846080936C
:1007E000B1008091B00081608093B0008091910051
:1007F000826080939100809191008160809391004C
:10080000809190008160809390008091A10082602F
:100810008093A1008091A10081608093A1008091CC
:10082000A00081608093A00080912101826080936C
:10083000210180912101816080932101809120011B
:1008400081608093200180917A00846080937A0097
:1008500080917A00826080937A0080917A00816032
:1008600080937A0080917A00806880937A00109259
:10087000C10082E00E94CD024DE050E06CE072E0E9
:1008800083E292E00E94000288EEC82E83E0D82E18
:10089000E12CF12C9AE0492E512C612C712C20E096
:1008A000A22E20E0B22EE0913602E23008F03FC0E6
:1008B000E150F0E0ED5DFD4F848980680E94C70241
:1008C0002FB7F89460911F0270912002809121024D
:1008D000909122022FBFA70196010E94B70419A28E
:1008E0008E010F5D1F4FCA01B901A30192010E9441
:1008F000B704605DF80162938F0121153105410550
:10090000510589F7309761F001900020E9F73197A0
:10091000AF01401B510BB80183E292E00E9400023C
:10092000A114B10409F4BFCF0E940000BCCFE1E0E4
:10093000C0CFE3E2F2E01382128284E092E091837E
:1009400080838CE084838FEF85838BE0868385E0D2
:10095000878384E0808783E0818782E082871386B3
:10096000148615861686178681E00C94CD02A1E2C6
:100970001A2EAA1BBB1BFD010DC0AA1FBB1FEE1F19
:10098000FF1FA217B307E407F50720F0A21BB30B64
:10099000E40BF50B661F771F881F991F1A9469F7E0
:1009A00060957095809590959B01AC01BD01CF013C
:1009B0000895EE0FFF1F881F8BBF0790F691E02D63
:0609C0001994F894FFCF2A
:1009C600000000006F0300022E022D0268656C6CA9
:0A09D6006F2C20776F726C64210013
:00000001FF
